:040000005EEF04F0BB
:1000080000C016F001C015F0F2A42FD0870ED66EEE
:100018001E6AA2DB4AEC04F0000E046E000E056EA8
:10002800000E066E890E076EC1DB00C01AF001C013
:100038001BF002C01CF003C01DF0000E046E000E81
:10004800056E000E066E890E076E37D9B2DB00C04A
:1000580018F001C019F001C002F0036A030E02147F
:10006800826EFF0E0014816EF29416C000F015C067
:0400780001F0110082
:10007C000B820BAE48EF00F0036802680168006861
:08008C000A360232FF0E1200D9
:080094000AAE029E000E1200EC
:10009C000B840BAE59EF00F0010E036E026A016A7D
:0A00AC00006A0A360232FF0E12004D
:0E00B600026A016A006A086A036A000E1200FC
:1000C4000CB0A4EF00F00CA24AEF01F00E6A000E8F
:1000D4000264BBEF00F0F00E0214D8A486EF00F027
:1000E400023A01380F0B02260138F00B016E00387A
:1000F4000F0B01260038F00B006E08380F0B00269A
:100104000838F00B086E0E84D89002BE9FEF00F002
:1001140008360036013602360E2A02BE9FEF00F082
:1001240008360036013602360E2A02BE9FEF00F072
:1001340008360036013602360E2A0E50036440EFAC
:1001440001F0035E0BBC08AE45EF01F0D880800ED1
:1001540008640030000E002201220222D8A045EFDC
:1001640001F0023201320032034A4AEF01F045EF56
:1001740001F001C002F000C001F008C000F0086AFC
:10018400000E0E860264F2EF00F0F00E0214D8A402
:10019400DAEF00F0023A01380F0B02260138F00BB7
:1001A400016E00380F0B01260038F00B006E0E8430
:1001B400D89002BE9FEF00F00036013602360E2AB8
:1001C40002BE9FEF00F00036013602360E2A02BE50
:1001D4009FEF00F00036013602360E2A9FEF00F042
:1001E40001C002F000C001F0006A000E0E960E88F5
:1001F40002641FEF01F0F00E0214D8A40AEF01F01C
:10020400023A01380F0B02260138F00B016E0E84FE
:10021400D89002BE9FEF00F0013602360E2A02BECD
:100224009FEF00F0013602360E2A02BE9FEF00F067
:10023400013602360E2A9FEF00F001C002F0016A77
:10024400000E0E8602644FEF01F0F00E0214D8A4E3
:100254002EEF01F0023A0E84D89002BE9FEF00F018
:1002640002360E2A02BE9FEF00F002360E2A02BEAC
:100274009FEF00F002360E2A9FEF00F0010E0C6E85
:100284000BDF52EF01F0020E0C6E02DF52EF01F0B1
:10029400040E0C6EF1DE52EF01F0080E0C6E09DF55
:0202A400120046
:1002A6000B800BAE5FEF01F0026A0AAEFF0E026E24
:0C02B600016E006E0A360232FF0E1200CC
:1002C200025006180E6E086A096A0B6A0350076428
:1002D20054EF02F006500A6E068E028E03500B6E29
:1002E2000750036E000E0B64A4EF01F00B50075E83
:1002F200D8B445EF02F0070E076413EF02F0075E71
:1003020000C008F001C000F002C001F0026A074E0E
:1003120045EF02F00764E8EF01F0075E00C008F065
:1003220001C000F0016A074E45EF02F00764C6EF14
:1003320001F0075E00C008F0006A074E45EF02F0C8
:100342000764ADEF01F00AC002F005C001F004C07D
:1003520000F0086A6EEF03F0030E0764B8EF01F0D5
:10036200075E08380F0B086E074E45EF02F0D89073
:100372000832074E45EF02F0D8900832074E45EF9B
:1003820002F0D890083245EF02F0030E0764D7EF6F
:1003920001F0075E08380F0B086E0038F00B0826D4
:1003A20000380F0B006E074E45EF02F0D890003276
:1003B2000832074E45EF02F0D89000320832074E5D
:1003C20045EF02F0D8900032083245EF02F0030EFA
:1003D2000764FFEF01F0075E08380F0B086E003864
:1003E200F00B082600380F0B006E0138F00B0026C8
:1003F20001380F0B016E074E45EF02F0D890013223
:1004020000320832074E45EF02F0D8900132003236
:100412000832074E45EF02F0D8900132003208321E
:1004220045EF02F0030E076430EF02F0075E083872
:100432000F0B086E0038F00B082600380F0B006E09
:100442000138F00B002601380F0B016E0238F00B59
:10045200012602380F0B026E074E45EF02F0D890CC
:100462000232013200320832074E45EF02F0D890D4
:100472000232013200320832074E45EF02F0D890C4
:100482000232013200320832096A000E0EAE39EF32
:1004920003F0081E001E011E021E082A002201226D
:1004A200022239EF03F00750D8A45AEF02F06EEFA0
:1004B20003F0096A02C00AF0028E068E0750035C3E
:1004C200076ED8B42CEF03F0070E0764FAEF02F0C0
:1004D200075E0450096E0550046E0650056E066AEA
:1004E200074E2CEF03F0070E0764CFEF02F0075E12
:1004F2000450096E0550046E056A074E2CEF03F096
:10050200070E0764ADEF02F0075E0450096E046A3D
:10051200074E2CEF03F0070E076494EF02F00AC0B7
:1005220002F06EEF03F0030E07649FEF02F0075E26
:1005320009380F0B096E074E2CEF03F0D8900932E1
:10054200074E2CEF03F0D8900932074E2CEF03F040
:10055200D89009322CEF03F0030E0764BEEF02F0CD
:10056200075E09380F0B096E0438F00B09260438B0
:100572000F0B046E074E2CEF03F0D89004320932B1
:10058200074E2CEF03F0D89004320932074E2CEFBD
:1005920003F0D890043209322CEF03F0030E076403
:1005A200E6EF02F0075E09380F0B096E0438F00B14
:1005B200092604380F0B046E0538F00B04260538A3
:1005C2000F0B056E074E2CEF03F0D8900532043264
:1005D2000932074E2CEF03F0D8900532043209326B
:1005E200074E2CEF03F0D8900532043209322CEF7B
:1005F20003F0030E076417EF03F0075E09380F0BD1
:10060200096E0438F00B092604380F0B046E053806
:10061200F00B042605380F0B056E0638F00B052685
:1006220006380F0B066E074E2CEF03F0D8900632F9
:10063200053204320932074E2CEF03F0D89006320D
:10064200053204320932074E2CEF03F0D8900632FD
:10065200053204320932086A000E0EAE39EF03F099
:10066200091E041E051E061E092A04220522062250
:100672000950082604500022055001220650022289
:100682000EBE50EF03F0D8A05FEF03F0023201324A
:1006920000320832033E5FEF03F069EF03F0D8B097
:1006A20064EF03F0000E081E001E011E021E082A3F
:1006B2000022012202220A7E64EF03F0010E0C6E78
:1006C20000DD70EF03F0020E0C6EFBDC70EF03F046
:1006D200040E0C6ED2DC70EF03F0000E0C6E1200F2
:0C06E2000E0E0D6E0D2EFED70000120053
:1006EE000C6A0E6A0250D8A490EF03F001C002F01B
:1006FE0000C001F0006A0E860250D8A490EF03F0FD
:10070E0001C002F0016A0E960E880250D8B4A2EF14
:10071E0003F00E50035ED8A4D8A0A7EF03F0D89034
:10072E0002BEACEF03F0003601360236032E97EF11
:10073E0003F0A7EF03F0010E0C6EB6DCAFEF03F083
:10074E00020E0C6EA4DCAFEF03F0040E0C6E9BDCFD
:02075E00120087
:10076000C26AC00EC212171C006E0050C116C18CA6
:10077000C18E1EC000F0003600900036009000369A
:1007800000900050C212C280ACDFC284C2A401D06B
:10079000FDD7C4CF01F0006AC3500012000E011251
:0407A000C2901200F1
:1007A4000900F5CFE6FF0006FBE10106F9E11200BE
:0607B400067E85DD120047
:1007BA000B6A0C6A0A6A0350D8B427EF04F0028E57
:1007CA008E0E035E03BEEFEF03F0D8B4EFEF03F033
:1007DA002BEF04F0036C080E035CD8A006EF04F0BC
:1007EA00036E013602C001F0026A080E035CD8A04B
:1007FA0006EF04F00136016A0350D8A4D89010EF2E
:10080A0004F00350D8B410EF04F0D8900232013249
:10081A00032E0AEF04F00BBC01A01DEF04F0D8A0D0
:10082A001DEF04F0012AD8B4022A02BE3AEF04F0FE
:10083A000AAE3FEF04F0021E011E012AD8B4022AB2
:10084A003FEF04F0026A016A3FEF04F00B800BAE3F
:10085A0043EF04F0026A0AAE43EF04F0FF0E026EA1
:10086A00016E0A36023243EF04F0010E0C6E16DDF9
:10087A0045EF04F0000E0C6E45EF04F0FF0E0C6E0F
:0A088A000150006E0250016E1200D2
:100894000050086E0150006E016A026A036A0B6A16
:1008A4000C6A960E036E0A6A00C001F008C000F0DC
:0808B400086A026A1ADF120053
:1008BC006AEC04F0936A946A816A826AA00EF26E02
:0808CC00C50ED56EFFD7FFD762
:1008D40010EE17F0010E006E010E016E060EF66E9C
:0E08E400000EF76E000EF86ED2EC03F012005C
:010006000FEA
:00000001FF
