:100000002FEF02F00000000000EF00F00000000001
:0A0010000000000000000000F3D71C
:0A001C00210E0D6E0D2EFED712000E
:100026000F0E0C6E470E0D6E0D2EFED70C2EFCD746
:06003600000000001200B2
:06003C00000000001200AC
:10004200086A096A100E0C6E01340836093604502B
:10005200085E0550D8A0053C095ED8B007D0045010
:1000620008260550D8B0053C0926D890003601363E
:060072000C2EEAD712007B
:10007800000160BF02D0819601D0818660BD02D0A8
:10008800819401D0818460BB02D0819201D08182A9
:1000980060B902D0819001D0818045B002D08188BA
:1000A80001D08198818AC6DF819A60B702D0819693
:1000B80001D0818660B502D0819401D0818460B37B
:1000C80002D0819201D0818260B102D0819001D0AA
:1000D800818045B002D0818801D08198818AAADFC9
:0E00E800819A45A002D09BDF01D094DF120068
:1000F6000B6A0A6A096A00500402F4CF09F0F3CFCA
:1001060008F001500502F4CF0BF0F3CF0AF00050CF
:100116000502F3500926F4500A22E86A0B22015020
:100126000402F3500926F4500A22E86A0B2208C09A
:1001360000F009C001F00AC002F00BC003F0120083
:0C01460045905FC060F095DF458012001E
:100152005F6A050E5F5C0BE25F5000016525E16E90
:10016200000E6621E26E200EE66E5F2AF2D70001D3
:100172005F506525E16E000E6621E26EE66A5F065B
:100182005F506525676F000E6621686F0A0E046E68
:10019200000E056E63C000F064C001F051DF08C0BC
:1001A20000F009C001F0300E002667C0E1FF68C010
:1001B200E2FF00C0E6FF0A0E046E000E056E63C089
:1001C20000F064C001F03CDF00C063F001C064F0E5
:1001D200000E011802E1000E001801E102D05F06D4
:0401E200CFD7120061
:1001E6000900F5CFE6FF0006FBE10106F9E1120082
:1001F600CB50010F006E016A000E012257C004F0B9
:10020600000E056E75DF060E026E00C004F001C01A
:1002160005F0025005E005320432059EFF0FFAD7BD
:10022600040E016E04C000F0015004E00036009098
:10023600FF0FFBD7300E0014036E04C000F005C09C
:1002460001F001320032019E01320032019E00C0EF
:0C025600BEFF0F0EBD160350BD121200BB
:08026200BE6ABD98BD9A1200AE
:10026A000FD0800E576E19D0C00E576E16D0940E4E
:10027A00576E13D0D40E576E10D0800E576E0DD015
:10028A005750010AEEE05750020AEEE05750030AAF
:10029A00EEE05750040AEEE0F0D75804006E5750CB
:1002AA00002600C057F000C060F0E1DE45905B6AAE
:1002BA005B505924E96E000E5A20EA6EEE520BE0AA
:1002CA005B505924E96E000E5A20EA6EEECF5FF0B9
:0A02DA0035DF5B2AEDD745801200E6
:1002E4005D6A5E6A57C061F058C062F0800E5818AB
:1002F400006E800E005C02E1000E575C0CE2010E01
:100304005D6E000E5E6E575000080001616F58C0AC
:1003140062F0000E625761C063F062C064F059C0BD
:1003240065F05AC066F013DF060E5B6E000E5C6E5D
:10033400000E006E5C50005C02E15B50000819E2A4
:100344005B505924E16E5C505A20E26E010E5B5CF6
:10035400006E000E5C58016E00505924E96E015085
:100364005A20EA6EEECFE6FF010E5B5E000E5C5A89
:10037400DFD759C0E1FF5AC0E2FF200EE66E5D50A0
:100384005E101AE05B6A5C6A5B505924E96E5C504B
:100394005A20EA6EEE50200A03E15B4A5C2AF4D745
:1003A400010E5B5E000E5C5A5B505924E16E5C509A
:0A03B4005A20E26E2D0EE66E1200D4
:0A03BE009494CA840C0EBD121200C4
:1003C800939A93989390939293949396819A819801
:1003D800819681948192819022DE21DE20DE8182C5
:1003E8008180818A27DE819A1ADE818A23DE819ABA
:1003F80016DE818A1FDE819A12DE8190818A1ADEDA
:10040800819A0DDE818A16DE819A81928186818A9F
:1004180011DE819A04DE81968180818A0BDE819AC1
:100428008190818A07DE819AFADD818A03DE819ACA
:100438008180818AFFDD819AF2DD8190818AFADDEF
:10044800819A8186818481828180818AF3DD819A83
:06045800E6DD4580120004
:10045E002CEC03F00F0EC112070EB412936A938C9C
:10046E00938E9494CA80CA92630ECB6EF3DE26C02E
:10047E0057F0BADE9DDFA1DF270E0C6EF50E0D6E66
:10048E000D2EFED70C2EFCD7010E0001606FEDDD98
:10049E000C0E606FEADD010E576E010E586E280EBF
:1004AE00596E000E5A6EDADE020E576E010E586E3F
:1004BE00460EF66E060EF76E000EF86E460EE16EE6
:1004CE00000EE26E110E006E010E016E85DE460EFE
:1004DE00596E000E5A6EC2DE060E0B6E130E0C6EA9
:1004EE00AD0E0D6E0D2EFED70C2EFCD70B2EFAD7A1
:1004FE000000000026C057F027C058F0310E596E8C
:10050E00000E5A6EE8DE010E576E090E586E310E51
:10051E00596E000E5A6EA2DE020E576E010E586E06
:10052E00150E596E000E5A6E99DE81BC3BD00A0E26
:10053E002624016E000E2720026E01C026F002C096
:10054E0027F0800E0218006E800E005C02E1FF0E96
:10055E00015C04E3FF0E266E000E276E26C057F0D8
:10056E0043DE26C057F027C058F0310E596E000EEC
:10057E005A6EB1DE010E576E090E586E310E596E5F
:10058E00000E5A6E6BDE030E0B6E8A0E0C6E550E3F
:10059E000D6E0D2EFED70C2EFCD70B2EFAD70000AB
:1005AE0000003AD081BE38D00A0E265C016E000ED5
:1005BE002758026E01C026F002C027F0800E006E92
:1005CE00800E0218005C02E10150000802E3266A68
:1005DE00276A26C057F008DE26C057F027C058F00D
:1005EE00310E596E000E5A6E76DE010E576E090EE2
:1005FE00586E310E596E000E5A6E30DE030E0B6EB3
:10060E008A0E0C6E550E0D6E0D2EFED70C2EFCD7CF
:0C061E000B2EFAD7000000007FD7FFD79A
:1006580010EE15F01C0E006E010E016E2A0EF66EDD
:0E066800060EF76E000EF86EF3EC00F01200B6
:10062A004E5545564F2050494331384632353530BC
:01063A0000BF
:02063B0032008B
:09063D004C6364346269743A00F4
:1006460050494320206573206C61206F6E646121E0
:0106560000A3
:020000040030CA
:0E000000210C1E1EFF8381FF0FC00FE00F407A
:00000001FF
