:020000001628C0
:0E0006008312031321088A00200882000800DC
:1000140003208A110A128000840AA00A0319A10A83
:08002400F003031D0A28080087
:10002C0083160313880183128801F201F3018030D7
:10003C007306F00080307002031D26281030720207
:10004C00031840287208423EF00000300318013EAD
:10005C007307F1007008A0007108A10003208A1139
:10006C000A1288002130FD00FD0B3A28F20A031910
:08007C00F30A1D281B2841288E
:100084008034B134DA34F534FF34F534DA34B1344D
:1000940080344E3425340A3400340A3425344E3442
:04400E00F22F000786
:00000001FF
