:100000005CEF01F00000000000EF00F000000000D5
:0A0010000000000000000000F3D71C
:06001C00000000001200CC
:100022000F0E0C6E470E0D6E0D2EFED70C2EFCD74A
:06003200000000001200B6
:0A003800210E0D6E0D2EFED71200F2
:1000420048BE02D0819601D0818648BC02D08194FC
:1000520001D0818448BA02D0819201D0818248B80D
:1000620002D0819001D0818030B002D0818801D04D
:100072008198818AD2DF819A48B602D0819601D0D6
:10008200818648B402D0819401D0818448B202D0E2
:10009200819201D0818248B002D0819001D08180CA
:1000A20030B002D0818801D08198818AB6DF819AEE
:0C00B20030A002D0B5DF01D0BEDF12008C
:1000BE000B6A0A6A096A00500402F4CF09F0F3CF02
:1000CE0008F001500502F4CF0BF0F3CF0AF0005008
:1000DE000502F3500926F4500A22E86A0B22015059
:1000EE000402F3500926F4500A22E86A0B2208C0D3
:1000FE0000F009C001F00AC002F00BC003F01200BC
:0C010E00309047C048F096DF30801200AF
:10011A000FD0800E426E19D0C00E426E16D0940EC9
:10012A00426E13D0D40E426E10D0800E426E0DD0A5
:10013A004250010AEEE04250020AEEE04250030A3F
:10014A00EEE04250040AEEE0F0D74304006E42505B
:10015A00002600C042F000C048F06EDF3090466AC8
:10016A0046504424E96E000E4520EA6EEE520BE03A
:10017A0046504424E96E000E4520EA6EEECF47F061
:0A018A00C1DF462AEDD730801200D5
:100194000900F5CFE6FF0006FBE10106F9E11200D4
:0801A400BE6ABD98BD9A12006D
:1001AC00CB50010F006E016A000E012242C004F018
:1001BC00000E056E7EDF060E026E00C004F001C05C
:1001CC0005F0025005E005320432059EFF0FFAD708
:1001DC00040E016E04C000F0015004E000360090E3
:1001EC00FF0FFBD7300E0014036E04C000F005C0E7
:1001FC0001F001320032019E01320032019E00C03A
:0C020C00BEFF0F0EBD160350BD12120005
:10021800939A93989390939293949396819A8198B2
:100228008196819481928190F8DEF7DEF6DE8182F4
:100238008180818AEFDE819AF0DE818AEBDE819A05
:10024800ECDE818AE7DE819AE8DE8190818AE2DE4F
:10025800819AE3DE818ADEDE819A81928186818AB3
:10026800D9DE819ADADE81968180818AD3DE819A0D
:100278008190818ACFDE819AD0DE818ACBDE819A15
:100288008180818AC7DE819AC8DE8190818AC2DE38
:10029800819A8186818481828180818ABBDE819A6C
:0602A800BCDE30801200F4
:0A02AE009494CA840C0EBD121200D5
:1002B80021EC02F00F0EC112070EB412936A938C50
:1002C800938E9494CA80CA92630ECB6E67DF1DC06A
:1002D80042F068DFE8DF9CDF270E0C6EF50E0D6E2E
:1002E8000D2EFED70C2EFCD7010E486EA6DE0C0E86
:1002F800486EA3DE010E426E060E436E150E446E66
:10030800000E456E06DF020E426E010E436E310E80
:10031800F66E040EF76E000EF86E310EE16E000EEA
:10032800E26E110E006E010E016E30DF310E446E6A
:10033800000E456EEEDE060E0B6E130E0C6EAD0E45
:100348000D6E0D2EFED70C2EFCD70B2EFAD7000003
:100358000000020E426E010E436E1F0E446E000E28
:10036800456ED7DE81BC29D00A0E1D24016E000E11
:100378001E20026E01C01DF002C01EF0800E021881
:10038800006E800E005C02E1FF0E015C04E3FF0ECC
:100398001D6E000E1E6E1DC042F004DF030E0B6EB4
:1003A8008A0E0C6E550E0D6E0D2EFED70C2EFCD738
:1003B8000B2EFAD70000000028D081BE26D00A0EE6
:1003C8001D5C016E000E1E58026E01C01DF002C0B9
:1003D8001EF0800E006E800E0218005C02E10150D3
:1003E800000802E31D6A1E6A1DC042F0DBDE030E30
:1003F8000B6E8A0E0C6E550E0D6E0D2EFED70C2E42
:0E040800FCD70B2EFAD700000000A3D7FFD7B9
:1004420010EE15F01B0E006E010E016E160EF66E0A
:0E045200040EF76E000EF86ECAEC00F01200F9
:080416004C6364346269740058
:02041E003200AA
:100420004E5545564F2050494331384632353530C8
:0104300000CB
:1004310050494320206573206C61206F6E646121F7
:0104410000BA
:020000040030CA
:0E000000210C1E1EFF8381FF0FC00FE00F407A
:00000001FF
