:1000000016EF00F00000000000EF00F0000000001C
:0A0010000000000000000000F3D71C
:10001C000900F5CFE6FF0006FBE10106F9E112004D
:10002C003F0E156E060E166E5B0E176E4F0E186E8B
:10003C00660E196E6D0E1A6E7D0E1B6E070E1C6E03
:10004C00FF0E1D6E670E1E6E956A836A1A0E0B6E7E
:10005C005E0E0C6E6E0E0D6E0D2EFED70C2EFCD79A
:10006C000B2EFAD70000026A080E025C1BE202C0DB
:10007C0001F0010E006E015004E000360090FF0FFD
:10008C00FBD700C083FF1A0E0B6E5E0E0C6E6E0E4D
:10009C000D6E0D2EFED70C2EFCD70B2EFAD70000B2
:1000AC00022AE2D7036A0A0E035C19E2150EE96E06
:1000BC00000EEA6E0350E926D8B0EA2AEECF83FF91
:1000CC001A0E0B6E5E0E0C6E6E0E0D6E0D2EFED796
:1000DC000C2EFCD70B2EFAD70000032AE4D7B5D789
:0200EC00FFD73C
:020000040030CA
:0D000100011E1EFF8381FF0FC00FE00F40A6
:00000001FF
