:100000002BEF02F00000000000EF00F00000000005
:0A0010000000000000000000F3D71C
:10001C000F0E0C6E470E0D6E0D2EFED70C2EFCD750
:06002C00000000001200BC
:0A003200210E0D6E0D2EFED71200F8
:06003C00000000001200AC
:1000420058BE02D0819601D0818658BC02D08194DC
:1000520001D0818458BA02D0819201D0818258B8ED
:1000620002D0819001D0818045B002D0818801D038
:100072008198818AE2DF819A58B602D0819601D0B6
:10008200818658B402D0819401D0818458B202D0C2
:10009200819201D0818258B002D0819001D08180BA
:1000A20045B002D0818801D08198818AC6DF819AC9
:0C00B20045A002D0B2DF01D0BBDF12007D
:1000BE00086A096A100E0C6E0134083609360450AF
:1000CE00085E0550D8A0053C095ED8B007D0045094
:1000DE0008260550D8B0053C0926D89000360136C2
:0600EE000C2EEAD71200FF
:0C00F400459051C058F0A3DF4580120079
:100100000B6A0A6A096A00500402F4CF09F0F3CFBF
:1001100008F001500502F4CF0BF0F3CF0AF00050C5
:100120000502F3500926F4500A22E86A0B22015016
:100130000402F3500926F4500A22E86A0B2208C090
:1001400000F009C001F00AC002F00BC003F0120079
:10015000556A050E555C0AE255505324E16E000EB7
:100160005420E26E200EE66E552AF3D755505324E4
:10017000E16E000E5420E26EE66A55065550532497
:10018000566E000E5420576E0A0E046E000E056E59
:1001900051C000F052C001F092DF08C000F009C069
:1001A00001F0300E002656C0E1FF57C0E2FF00C04C
:1001B000E6FF0A0E046E000E056E51C000F052C03C
:1001C00001F07DDF00C051F001C052F0000E0118B7
:1001D00002E1000E001801E102D05506CFD712004F
:0A01E0009494CA840C0EBD121200A4
:1001EA000900F5CFE6FF0006FBE10106F9E112007E
:0801FA00BE6ABD98BD9A120017
:10020200939A93989390939293949396819A8198C8
:10021200819681948192819000DFFFDEFEDE8182F1
:100222008180818A0ADF819AF8DE818A06DF819ADB
:10023200F4DE818A02DF819AF0DE8190818AFDDE1E
:10024200819AEBDE818AF9DE819A81928186818AA6
:10025200F4DE819AE2DE81968180818AEEDE819AE5
:100262008190818AEADE819AD8DE818AE6DE819AED
:100272008180818AE2DE819AD0DE8190818ADDDE10
:10028200819A8186818481828180818AD6DE819A67
:06029200C4DE45801200ED
:100298004D6A4E6A47C04FF048C050F0800E48186B
:1002A800006E800E005C02E1000E475C0BE2010E5E
:1002B8004D6E000E4E6E475000084F6E48C050F00D
:1002C800000E50564FC051F050C052F049C053F084
:1002D8004AC054F039DF060E4B6E000E4C6E000E0D
:1002E800006E4C50005C02E14B50000819E24B5084
:1002F8004924E16E4C504A20E26E010E4B5C006EC0
:10030800000E4C58016E00504924E96E01504A20F5
:10031800EA6EEECFE6FF010E4B5E000E4C5ADFD7B9
:1003280049C0E1FF4AC0E2FF200EE66E4D504E1074
:100338001AE04B6A4C6A4B504924E96E4C504A20EB
:10034800EA6EEE50200A03E14B4A4C2AF4D7010E1C
:100358004B5E000E4C5A4B504924E16E4C504A20DB
:08036800E26E2D0EE66E12009C
:10037000CB50010F006E016A000E012247C004F04D
:10038000000E056EBDDE060E026E00C004F001C058
:1003900005F0025005E005320432059EFF0FFAD742
:1003A000040E016E04C000F0015004E0003600901D
:1003B000FF0FFBD7300E0014036E04C000F005C021
:1003C00001F001320032019E01320032019E00C074
:0C03D000BEFF0F0EBD160350BD12120040
:1003DC000FD0800E476E19D0C00E476E16D0940EFB
:1003EC00476E13D0D40E476E10D0800E476E0DD0D2
:1003FC004750010AEEE04750020AEEE04750030A6C
:10040C00EEE04750040AEEE0F0D74804006E475087
:10041C00002600C047F000C058F00DDE45904B6A36
:10042C004B504924E96E000E4A20EA6EEE520BE066
:10043C004B504924E96E000E4A20EA6EEECF51F083
:0A044C0053DE4B2AEDD74580120065
:10045600B1EC02F0466A0F0EC112070EB412936A8F
:10046600938C938E9494CA90CA923E0ECB6EC2DE43
:10047600B4DEC4DE270E0C6EF50E0D6E0D2EFED705
:100486000C2EFCD7010E586ED9DD0C0E586ED6DD3B
:10049600010E476E010E486E150E496E000E4A6E2D
:1004A6009ADF020E476E010E486E1E0E496E000E52
:1004B6004A6E91DF060E0B6E130E0C6EAD0E0D6EB0
:1004C6000D2EFED70C2EFCD70B2EFAD700000000FF
:1004D6002FC047F030C048F0310E496E000E4A6E0C
:1004E600D8DE010E476E090E486E310E496E000EBB
:1004F6004A6E71DF466A140E465C16E24E0E4624BC
:10050600F66E050EF76E000EF722000EF86E000E60
:10051600F8220900F5CF47F028DF060E0D6E0D2EE6
:0C052600FED70000462AE7D7E5D7FFD734
:1005620010EE15F01C0E006E010E016E320EF66ECC
:0E057200050EF76E000EF86EF5EC00F01200AC
:090532004C6364346269743A0000
:10053B0050494320206573206C61206F6E646121EC
:01054B0000AF
:02054C0032007B
:10054E007F92A3B1B9BDB9B1A3927F6B5A4C44410E
:04055E00444C5A6B44
:020000040030CA
:0E000000000C1F1EFF8381FF0FC00FE00F409A
:00000001FF
