:100000000EEF00F00000000000EF00F00000000024
:0A0010000000000000000000F3D71C
:10001C00946A956A826A760E836E8280210E0C6ECB
:10002C00760E0D6E0D2EFED70C2EFCD70000826ABC
:10003C003F0E836E8282210E0C6E760E0D6E0D2E8F
:10004C00FED70C2EFCD70000826A380E836E828499
:10005C00210E0C6E760E0D6E0D2EFED70C2EFCD7CF
:10006C000000826A770E836E8286210E0C6E760EED
:10007C000D6E0D2EFED70C2EFCD70000CBD7FFD764
:020000040030CA
:0D000100021F1EFF8381FF0FC00FE00F40A4
:00000001FF
