:10000000CBEF1EF00000000000EF00F00000000049
:0A0010000000000000000000F3D71C
:08001C000AAE029E000E120064
:100024000B840BAE1DEF00F0010E036E026A016A31
:0A003400006A0A360232FF0E1200C5
:0E003E00026A016A006A086A036A000E120074
:10004C000B820BAE30EF00F00368026801680068A9
:08005C000A360232FF0E120009
:100064000CB074EF00F00CA21AEF01F00E6A000E4F
:1000740002648BEF00F0F00E0214D8A456EF00F0E7
:10008400023A01380F0B02260138F00B016E0038DA
:100094000F0B01260038F00B006E08380F0B0026FA
:1000A4000838F00B086E0E84D89002BE6FEF00F093
:1000B40008360036013602360E2A02BE6FEF00F013
:1000C40008360036013602360E2A02BE6FEF00F003
:1000D40008360036013602360E2A0E50036410EF3D
:1000E40001F0035E0BBC08AE15EF01F0D880800E62
:1000F40008640030000E002201220222D8A015EF6D
:1001040001F0023201320032034A1AEF01F015EF16
:1001140001F001C002F000C001F008C000F0086A5C
:10012400000E0E860264C2EF00F0F00E0214D8A492
:10013400AAEF00F0023A01380F0B02260138F00B47
:10014400016E00380F0B01260038F00B006E0E8490
:10015400D89002BE6FEF00F00036013602360E2A48
:1001640002BE6FEF00F00036013602360E2A02BEE0
:100174006FEF00F00036013602360E2A6FEF00F002
:1001840001C002F000C001F0006A000E0E960E8855
:100194000264EFEF00F0F00E0214D8A4DAEF00F0DE
:1001A400023A01380F0B02260138F00B016E0E845F
:1001B400D89002BE6FEF00F0013602360E2A02BE5E
:1001C4006FEF00F0013602360E2A02BE6FEF00F028
:1001D400013602360E2A6FEF00F001C002F0016A08
:1001E400000E0E8602641FEF01F0F00E0214D8A474
:1001F400FEEF00F0023A0E84D89002BE6FEF00F0DA
:1002040002360E2A02BE6FEF00F002360E2A02BE3C
:100214006FEF00F002360E2A6FEF00F0010E0C6E45
:10022400FFDE22EF01F0020E0C6EF6DE22EF01F08B
:10023400040E0C6E09DF22EF01F0080E0C6EFDDED9
:020244001200A6
:10024600025006180E6E086A096A0B6A03500764A4
:1002560016EF02F006500A6E068E028E03500B6EE3
:100266000750036E000E0B6466EF01F00B50075E3D
:10027600D8B407EF02F0070E0764D5EF01F0075E6A
:1002860000C008F001C000F002C001F0026A074E8B
:1002960007EF02F00764AAEF01F0075E00C008F05E
:1002A60001C000F0016A074E07EF02F0076488EF0D
:1002B60001F0075E00C008F0006A074E07EF02F083
:1002C60007646FEF01F00AC002F005C001F004C038
:1002D60000F0086A30EF03F0030E07647AEF01F0CE
:1002E600075E08380F0B086E074E07EF02F0D8902E
:1002F6000832074E07EF02F0D8900832074E07EF94
:1003060002F0D890083207EF02F0030E076499EF67
:1003160001F0075E08380F0B086E0038F00B082650
:1003260000380F0B006E074E07EF02F0D890003230
:100336000832074E07EF02F0D89000320832074E17
:1003460007EF02F0D8900032083207EF02F0030EF2
:100356000764C1EF01F0075E08380F0B086E00381E
:10036600F00B082600380F0B006E0138F00B002644
:1003760001380F0B016E074E07EF02F0D8900132DD
:1003860000320832074E07EF02F0D89001320032F1
:100396000832074E07EF02F0D890013200320832D9
:1003A60007EF02F0030E0764F2EF01F0075E08386C
:1003B6000F0B086E0038F00B082600380F0B006E86
:1003C6000138F00B002601380F0B016E0238F00BD6
:1003D600012602380F0B026E074E07EF02F0D89087
:1003E6000232013200320832074E07EF02F0D8908F
:1003F6000232013200320832074E07EF02F0D8907F
:100406000232013200320832096A000E0EAEFBEFEC
:1004160002F0081E001E011E021E082A00220122EA
:100426000222FBEF02F00750D8A41CEF02F030EFD7
:1004360003F0096A02C00AF0028E068E0750035CBA
:10044600076ED8B4EEEF02F0070E0764BCEF02F0B9
:10045600075E0450096E0550046E0650056E066A66
:10046600074EEEEF02F0070E076491EF02F0075E0B
:100476000450096E0550046E056A074EEEEF02F051
:10048600070E07646FEF02F0075E0450096E046AF8
:10049600074EEEEF02F0070E076456EF02F00AC0B1
:1004A60002F030EF03F0030E076461EF02F0075E1F
:1004B60009380F0B096E074EEEEF02F0D89009329D
:1004C600074EEEEF02F0D8900932074EEEEF02F03B
:1004D600D8900932EEEF02F0030E076480EF02F0C7
:1004E600075E09380F0B096E0438F00B092604382D
:1004F6000F0B046E074EEEEF02F0D890043209326D
:10050600074EEEEF02F0D89004320932074EEEEFB6
:1005160002F0D89004320932EEEF02F0030E0764BF
:10052600A8EF02F0075E09380F0B096E0438F00BCE
:10053600092604380F0B046E0538F00B042605381F
:100546000F0B056E074EEEEF02F0D890053204321F
:100556000932074EEEEF02F0D89005320432093226
:10056600074EEEEF02F0D890053204320932EEEF74
:1005760002F0030E0764D9EF02F0075E09380F0B8D
:10058600096E0438F00B092604380F0B046E053883
:10059600F00B042605380F0B056E0638F00B052602
:1005A60006380F0B066E074EEEEF02F0D8900632B5
:1005B600053204320932074EEEEF02F0D8900632C9
:1005C600053204320932074EEEEF02F0D8900632B9
:1005D600053204320932086A000E0EAEFBEF02F055
:1005E600091E041E051E061E092A042205220622CD
:1005F6000950082604500022055001220650022206
:100606000EBE12EF03F0D8A021EF03F00232013242
:1006160000320832033E21EF03F02BEF03F0D8B08F
:1006260026EF03F0000E081E001E011E021E082AF9
:100636000022012202220A7E26EF03F0010E0C6E32
:100646000EDD32EF03F0020E0C6E09DD32EF03F021
:10065600040E0C6EF8DC32EF03F0000E0C6E120086
:100666000D6A086A0050D8B4000C04180A6E0ABE57
:100676000D1E0B6A04AE02D0041E042A00AE02D080
:10068600001E002A005004100A6E0ABE1FD0045035
:10069600085E003600340836045008260036060E7A
:1006A6000C6E00340836045000B0085E00A0082620
:1006B60000360C2EF6D700A008260BB015D00DAECE
:1006C600000C001E002A081E082A000C04AE09D0E1
:1006D60000BE04D00050086E006AF1D7006A002AF6
:1006E600000C001E0B2AD3D7082A0450085CD8A495
:0E06F600E6D7086A002A00AEE2D7FF0C120019
:100704000134083609360450085E0550D8A0053C6B
:10071400095E003601360F0E0C6E013408360936B8
:10072400045000A006D0085E0550D8A0053C095E20
:1007340005D008260550D8B0053C092600360136F8
:100744000C2EEBD700B006D0045008260550D8B0C4
:08075400053C0926000012001B
:10075C00086A096A000E0762036433EF04F0025062
:10076C0006180A6E075003267E0ED8A0C4EF03F0BD
:10077C00035ED8B038EF04F0C8EF03F0035ED8A0E6
:10078C003DEF04F0028E068E02C00EF001C00BF09D
:10079C0000C00DF000500402F4CF0CF00150050223
:1007AC00F4CF00F0F3CF08F00402F3500C26F45011
:1007BC000822000E00220D500502F3500C26F450B6
:1007CC000822000E002202500402F3500826F450B6
:1007DC00002202500502016A000E0122F35000268D
:1007EC00F45001220D500602F3500826F45000225A
:1007FC00026A000E012202220B500602F350002660
:10080C00F4500122000E02220E500602F350012673
:10081C00F450022202BE1BEF04F0083600360136FB
:10082C0002360306D8B43DEF04F02EEF04F0D88066
:10083C00800E08640030000E002201220222D8A093
:10084C002EEF04F0023201320032034A38EF04F08A
:10085C000AAE029E000E40EF04F0010E1FEC00F0F9
:10086C0040EF04F0020E26EC00F040EF04F0040E12
:06087C0012EC00F0120076
:100882000B800BAE4DEF04F0026A0AAEFF0E026E51
:0C089200016E006E0A360232FF0E1200EA
:08089E000B6A0B86FF0E12002D
:1008A600240E0C6EB50E0D6E0D2EFED70C2EFCD73B
:0608B6000000000012002A
:0A08BC00530E0D6E0D2EFED7120034
:1008C600086A080E0C6E003408360450085ED8B06C
:0E08D60002D00826D89000360C2EF5D712005E
:0C08E400000000000000000000001200F6
:1008F0000B6A0C6A0A6A086A0350D8B400EF05F064
:10090000028E9E0E035E03BE8BEF04F0D8B48BEF15
:1009100004F0F0EF04F0036C080E035CD8A0BDEF08
:1009200004F0036E083600C008F001C000F002C0F9
:1009300001F0026A080E035CD8A0BDEF04F0036E5C
:10094000083600C008F001C000F0016A080E035C20
:10095000D8A0BDEF04F0036E083600C008F0006AAE
:10096000080E035CD8A0BDEF04F0036E0836086AD9
:100970000350D8A4D890C9EF04F00350D8B4C9EFFD
:1009800004F0D8900232013200320832032EC1EF57
:1009900004F00BBC08A0DAEF04F0D8A0DAEF04F002
:1009A000082AD8B4002AD8B4012AD8B4022A02BE30
:1009B00004EF05F00AAE00EF05F0021E011E001E56
:1009C000081E082AD8B4002AD8B4012AD8B4022AAA
:1009D00000EF05F0026A016A006A086A00EF05F09C
:1009E0000B800BAE09EF05F0026A0AAE09EF05F0C5
:1009F000026E016E006E086E0A36023209EF05F0D3
:100A0000000E0C6A0AEF05F0010E0C6E3ADF0AEFD9
:100A100005F0FF0E0250036E0150026E0050016E91
:060A20000850006E1200F8
:100A26000B6A0C6A086A0350D8B497EF05F002C047
:100A36000AF0028E9E0E035E03AE87EF05F0036C8E
:100A4600080E035CD8A054EF05F0036E083600C00C
:100A560008F001C000F002C001F0026A080E035C53
:100A6600D8A054EF05F0036E083600C008F001C0A8
:100A760000F0016A080E035CD8A054EF05F0036E7F
:100A8600083600C008F0006A080E035CD8A054EFD0
:100A960005F0036E0836086A0350D8A4D89060EFB4
:100AA60005F00350D8B460EF05F0D8900232013259
:100AB60000320832032E58EF05F00BBC08A071EF88
:100AC60005F0D8A071EF05F0082AD8B4002AD8B4EA
:100AD600012AD8B4022A02BE9BEF05F00AAE97EFB0
:100AE60005F0021E011E001E081E082AD8B4002AA0
:100AF600D8B4012AD8B4022A97EF05F0026A016A2F
:100B0600006A086A97EF05F00B800BAEA1EF05F0BF
:100B1600026A0AAEA1EF05F0026E016E006E086E63
:100B26000A360232A1EF05F00C6A000EA2EF05F0BC
:100B3600010E0C6E000EA2DEA2EF05F0FF0E0250B3
:100B4600036E0150026E0050016E0850006E1200D6
:100B56006E0E0101035DD8A0C3D0640E046E03C1FE
:100B660000F0AEDE120E0024056E066A000E0622A6
:100B760005C000F006C001F0000E06BEFF0E026EB4
:100B8600036E0036009001360236033600360090BA
:100B9600013602360336820E0024F66E420E01201E
:100BA600F76E000E0220F86E0900F5CF00F009007E
:100BB600F5CF01F00900F5CF02F00900F5CF03F0FB
:100BC600000E046E000E056E000E066E7E0E076E9B
:100BD600C2DD00C004F101C005F102C006F103C088
:100BE60007F1640E046E03C100F06ADE08C000F06F
:100BF6000A0E046E65DE090E0024056E066A000EF6
:100C0600062205C000F006C001F0000E06BEFF0E6B
:100C1600026E036E00360090013602360336003649
:100C26000090013602360336820E0024F66E420E1E
:100C36000120F76E000E0220F86E0900F5CF00F0D5
:100C46000900F5CF01F00900F5CF02F00900F5CF54
:100C560003F004C104F005C105F006C106F007C1A2
:100C660007F079DD00C004F101C005F102C006F10C
:100C760003C007F10A0E046E03C100F021DE08C0AE
:100C860000F000C001F0000E026E036E046E013625
:100C960001900236033604360136019002360336D9
:100CA6000436820E0124F66E420E0220F76E000E06
:100CB6000320F86E0900F5CF00F00900F5CF01F02A
:100CC6000900F5CF02F00900F5CF03F004C104F0E6
:100CD60005C105F006C106F007C107F03CDDACD042
:100CE60003510A08D8B07AD00A0E046E03C100F088
:100CF600E7DD090E0024056E066A000E062205C011
:100D060000F006C001F0000E06BEFF0E026E036E76
:100D16000036009001360236033600360090013662
:100D260002360336820E0024F66E420E0120F76E5E
:100D3600000E0220F86E0900F5CF00F00900F5CF8D
:100D460001F00900F5CF02F00900F5CF03F0000E1F
:100D5600046E000E056E000E066E7E0E076EFBDC40
:100D660000C004F101C005F102C006F103C007F19D
:100D76000A0E046E03C100F0A3DD08C000F000C037
:100D860001F0000E026E036E046E0136019002360B
:100D96000336043601360190023603360436820ED7
:100DA6000124F66E420E0220F76E000E0320F86E46
:100DB6000900F5CF00F00900F5CF01F00900F5CFE5
:100DC60002F00900F5CF03F004C104F005C105F0F7
:100DD60006C106F007C107F0BEDC2ED003C100F045
:100DE600000E016E026E036E00360090013602366A
:100DF600033600360090013602360336820E002492
:100E0600F66E420E0120F76E000E0220F86E090003
:100E1600F5CF00F00900F5CF01F00900F5CF02F09B
:100E26000900F5CF03F0000E046E000E056E000EED
:0A0E3600066E7E0E076E8FDC1200C0
:100E40000B6A0A6A096A086A0E6A03340836045093
:100E5000085E0550D8A0053C095E0650D8A0063CA7
:100E60000A5E0750D8A0073C0B5EE86AD8A0010EC6
:100E70000E5E0336070E0C6E0334083609360A364A
:100E80000B360E36045003A012D0085E0550D8A0D1
:100E9000053C095E0650D8A0063C0A5E0750D8A063
:100EA000073C0B5EE86AD8A0010E0E5E11D0082642
:100EB0000550D8B0053C09260650D8B0063C0A2695
:100EC0000750D8B0073C0B26E86AD8B0010E0E26B2
:100ED00003360C2ED1D70234083609360A360B36C3
:100EE0000E36045003A012D0085E0550D8A0053C71
:100EF000095E0650D8A0063C0A5E0750D8A0073C01
:100F00000B5EE86AD8A0010E0E5E11D008260550CF
:100F1000D8B0053C09260650D8B0063C0A26075032
:100F2000D8B0073C0B26E86AD8B0010E0E26023670
:100F3000070E0C6E0234083609360A360B360E36AA
:100F4000045002A012D0085E0550D8A0053C095EEE
:100F50000650D8A0063C0A5E0750D8A0073C0B5E9E
:100F6000E86AD8A0010E0E5E11D008260550D8B050
:100F7000053C09260650D8B0063C0A260750D8B0D2
:100F8000073C0B26E86AD8B0010E0E2602360C2E5E
:100F9000D1D70134083609360A360B360E360450DE
:100FA00002A012D0085E0550D8A0053C095E06508C
:100FB000D8A0063C0A5E0750D8A0073C0B5EE86A42
:100FC000D8A0010E0E5E11D008260550D8B0053C01
:100FD00009260650D8B0063C0A260750D8B0073C70
:100FE0000B26E86AD8B0010E0E260136070E0C6EED
:100FF0000134083609360A360B360E36045001A085
:1010000012D0085E0550D8A0053C095E0650D8A055
:10101000063C0A5E0750D8A0073C0B5EE86AD8A0E1
:10102000010E0E5E11D008260550D8B0053C0926E9
:101030000650D8B0063C0A260750D8B0073C0B260D
:10104000E86AD8B0010E0E2601360C2ED1D7003436
:10105000083609360A360B360E36045001A012D077
:10106000085E0550D8A0053C095E0650D8A0063C95
:101070000A5E0750D8A0073C0B5EE86AD8A0010EB4
:101080000E5E11D008260550D8B0053C0926065042
:10109000D8B0063C0A260750D8B0073C0B26E86AB1
:1010A000D8B0010E0E260036070E0C6E003408363E
:1010B00009360A360B360E36045000A012D0085EF0
:1010C0000550D8A0053C095E0650D8A0063C0A5E33
:1010D0000750D8A0073C0B5EE86AD8A0010E0E5E50
:1010E00011D008260550D8B0053C09260650D8B0C6
:1010F000063C0A260750D8B0073C0B26E86AD8B051
:10110000010E0E2600360C2ED1D700B00ED00450A2
:1011100008260550D8B0053C09260650D8B0063C34
:0C1120000A260750D8B0073C0B2612002E
:10112C0001010351390806E3300E035D03E3010EA0
:08113C00006E01D0006A1200F0
:10114400800E01010319006E800E000A005CD8B005
:101154006DD103510008016E01C003F1800E011826
:10116400006E800E6E0A005CD8A0C0D0640E046EBF
:1011740003C100F033EC03F0120E0024056E000EE0
:1011840000BEFF0E066E000E062205C000F006C06B
:1011940001F0000E06BEFF0E026E036E00360090D4
:1011A4000136023603360036009001360236033625
:1011B400820E0024F66E420E0120F76E000E02200D
:1011C400F86E0900F5CF04F10900F5CF05F1090027
:1011D400F5CF06F10900F5CF07F1640E046E03C1E3
:1011E40000F033EC03F008C000F00A0E046E33EC98
:1011F40003F0090E0024056E000E00BEFF0E066EFD
:10120400000E062205C000F006C001F0000E06BE66
:10121400FF0E026E036E003600900136023603366E
:1012240000360090013602360336820E0024F66E34
:10123400420E0120F76E000E0220F86E0900F5CF71
:1012440000F00900F5CF01F00900F5CF02F0090024
:10125400F5CF03F004C104F005C105F006C106F0A2
:1012640007C107F0AEEC03F000C004F101C005F1C2
:1012740002C006F103C007F10A0E046E03C100F0B8
:1012840033EC03F008C000F000C001F0000E00BE13
:10129400FF0E026E036E046E0136019002360336B1
:1012A400043601360190023603360436820E0124D8
:1012B400F66E420E0220F76E000E0320F86E09004F
:1012C400F5CF00F00900F5CF01F00900F5CF02F0E9
:1012D4000900F5CF03F004C104F005C105F006C10F
:1012E40006F007C107F0AEEC03F007D2800E0A0A3D
:1012F400006E800E0319005C71E20A0E046E03C1D5
:1013040000F033EC03F0090E0024056E000E00BE5D
:10131400FF0E066E000E062205C000F006C001F0A6
:10132400000E06BEFF0E026E036E003600900136FC
:101334000236033600360090013602360336820E3A
:101344000024F66E420E0120F76E000E0220F86EA5
:101354000900F5CF04F10900F5CF05F10900F5CF37
:1013640006F10900F5CF07F10A0E046E03C100F07F
:1013740033EC03F008C000F000C001F0000E00BE22
:10138400FF0E026E036E046E0136019002360336C0
:10139400043601360190023603360436820E0124E7
:1013A400F66E420E0220F76E000E0320F86E09005E
:1013B400F5CF00F00900F5CF01F00900F5CF02F0F8
:1013C4000900F5CF03F004C104F005C105F006C11E
:1013D40006F007C107F0AEEC03F08FD103C100F0B3
:1013E400000E03BFFF0E016E026E036E0036009006
:1013F40001360236033600360090013602360336D3
:10140400820E0024F66E420E0120F76E000E0220BA
:10141400F86E0900F5CF00F00900F5CF01F00900DE
:10142400F5CF02F00900F5CF03F067D1800E031960
:10143400006E800E6E0A005CD8A0C0D0640E046EEC
:1014440003C100F033EC03F0120E0024056E000E0D
:1014540000BEFF0E066E000E062205C000F006C098
:1014640001F0000E06BEFF0E026E036E0036009001
:101474000136023603360036009001360236033652
:10148400B60E0024F66E420E0120F76E000E022006
:10149400F86E0900F5CF04F10900F5CF05F1090054
:1014A400F5CF06F10900F5CF07F1640E046E03C110
:1014B40000F033EC03F008C000F00A0E046E33ECC5
:1014C40003F0090E0024056E000E00BEFF0E066E2A
:1014D400000E062205C000F006C001F0000E06BE94
:1014E400FF0E026E036E003600900136023603369C
:1014F40000360090013602360336B60E0024F66E2E
:10150400420E0120F76E000E0220F86E0900F5CF9E
:1015140000F00900F5CF01F00900F5CF02F0090051
:10152400F5CF03F004C104F005C105F006C106F0CF
:1015340007C107F0AEEC03F000C004F101C005F1EF
:1015440002C006F103C007F10A0E046E03C100F0E5
:1015540033EC03F008C000F000C001F0000E00BE40
:10156400FF0E026E036E046E0136019002360336DE
:10157400043601360190023603360436B60E0124D1
:10158400F66E420E0220F76E000E0320F86E09007C
:10159400F5CF00F00900F5CF01F00900F5CF02F016
:1015A4000900F5CF03F004C104F005C105F006C13C
:1015B40006F007C107F0AEEC03F09FD0800E0A0AD4
:1015C400006E800E0319005C71E20A0E046E03C102
:1015D40000F033EC03F0090E0024056E000E00BE8B
:1015E400FF0E066E000E062205C000F006C001F0D4
:1015F400000E06BEFF0E026E036E0036009001362A
:101604000236033600360090013602360336B60E33
:101614000024F66E420E0120F76E000E0220F86ED2
:101624000900F5CF04F10900F5CF05F10900F5CF64
:1016340006F10900F5CF07F10A0E046E03C100F0AC
:1016440033EC03F008C000F000C001F0000E00BE4F
:10165400FF0E026E036E046E0136019002360336ED
:10166400043601360190023603360436B60E0124E0
:10167400F66E420E0220F76E000E0320F86E09008B
:10168400F5CF00F00900F5CF01F00900F5CF02F025
:101694000900F5CF03F004C104F005C105F006C14B
:1016A40006F007C107F0AEEC03F027D003C100F049
:1016B400000E03BFFF0E016E026E036E0036009033
:1016C4000136023603360036009001360236033600
:1016D400B60E0024F66E420E0120F76E000E0220B4
:1016E400F86E0900F5CF00F00900F5CF01F009000C
:0C16F400F5CF02F00900F5CF03F0120062
:1017000003500718D8A494EF0BF002500618D8A481
:1017100094EF0BF001500518D8A494EF0BF0005093
:0E1720000418D8B4D8841200D8941200120015
:10172E000A6A0350D8A40A800750D8A40A820A5025
:10173E00D8B4FAEF0BF0030AD8B4B3EF0BF00AB03B
:10174E00AEEF0BF006AEF8EF0BF0F6EF0BF002AECD
:10175E00F6EF0BF0F8EF0BF00250800B0A6E029EC4
:10176E000650800B069E0A18D8B4C4EF0BF00A5030
:10177E00D8B4F6EF0BF0F8EF0BF00750035CD8B4CB
:10178E00CEEF0BF0D8A0EAEF0BF0F0EF0BF0065017
:10179E00025CD8B4D8EF0BF0D8A0EAEF0BF0F0EF64
:1017AE000BF00550015CD8B4E2EF0BF0D8A0EAEFD5
:1017BE000BF0F0EF0BF00450005CD8B4FAEF0BF026
:1017CE00D8B0F0EF0BF00A52D8B4F8EF0BF0F6EFFA
:1017DE000BF00A52D8B4F6EF0BF0F8EF0BF0D880FE
:0E17EE001200D8901200D880D8841200120089
:1017FC000450000A08E10550000A05E1FF0E006ED6
:10180C007F0E016E58D00D6A096A086A01500010EB
:10181C00D8B4000C015005180A6E0ABE0D1E0B6AD6
:10182C0005AE05D0041E051E042AD8B4052A01AE47
:10183C0005D0001E011E002AD8B4012A0150051043
:10184C000A6E0ABE10D082EC03F00BB020D00DAEA5
:10185C00000C001E011E002AD8B4012A081E091E05
:10186C00082AD8B4092A000C05AE0DD001BE07D049
:10187C000150096E0050086E016A006AE8D7016ACF
:10188C00006A002A000C011E001E0B2ADDD7082A54
:10189C00D8B4092A0450085CD8A4D9D70550095CDF
:1018AC00D8A4D5D7096A086A002AD8B4012A01AE8F
:0818BC00CED70000FF0C120062
:0818C400067E23EC01F0120086
:1018CC00010103BF02D08C9601D08C8603BD02D0DF
:1018DC008C9401D08C8403BB02D08C9201D08C826E
:1018EC0003B902D08C9001D08C806CB002D08C8863
:1018FC0001D08C988C8A72EC04F08C9A03B702D0CD
:10190C008C9601D08C8603B502D08C9401D08C843B
:10191C0003B302D08C9201D08C8203B102D08C9094
:10192C0001D08C806CB002D08C8801D08C988C8AC1
:10193C0072EC04F08C9A6CA003D053EC04F002D03F
:06194C005EEC04F0120045
:101952000050086E0150006E0250016E0350026E7C
:10196200036A0B6A0C6A9E0E036E0A6A020E0C6E02
:0619720032EC00F012004F
:101978000450000A12E10550000A0FE10650000A5F
:101988000CE10750000A09E1FF0E006EFF0E016E20
:101998007F0E026EFF0E036EA8D0086A096A075010
:1019A800D8B467EF0DF00350D8B46CEF0DF00250C7
:1019B80006180A6E028E068E0E6A02C008F001C072
:1019C8000CF000C00DF004500D5E0550D8A0053C89
:1019D8000C5E0650D8A0063C085E086A0C6A0D6AC0
:1019E800D8A0FEEF0CF0D890023201320032083253
:1019F800010E0E6E0750035ED8A00BEF0DF07E0EA1
:101A08000E240326D8B071EF0DF011EF0DF07E0E05
:101A18000E240326D8A076EF0DF0180E0B6E0D36A7
:101A28000C3608360036013602360E360450005E93
:101A38000550D8A0053C015E0650D8A0063C025EC1
:101A480006340E120EA02CEF0DF00D8037EF0DF0BE
:101A5800045000260550D8B0053C01260650D8B0E1
:101A6800062802260D900B2E13EF0DF05DEF0DF0FA
:101A7800D8900036013602360E360450005E055006
:101A8800D8A0053C015E0650D8A0063C025E06348C
:101A98000E10010B0D26D8B00C2AD8B4082AD8A4E9
:101AA8005DEF0DF008320C320D32032AD8B471EF15
:101AB8000DF00AAE089E0850026E0C50016E0D50D3
:101AC800006E79EF0DF0010E4FEC04F079EF0DF098
:101AD800020E1FEC00F079EF0DF0040E26EC00F07A
:0C1AE80079EF0DF0080E12EC00F0120077
:101AF4000B6A0A6A096A00500402F4CF09F0F3CFB2
:101B040008F001500502F4CF0BF0F3CF0AF00050B7
:101B14000502F3500926F4500A22E86A0B22015008
:101B24000402F3500926F4500A22E86A0B2208C082
:101B340000F009C001F00AC002F00BC003F012006B
:0C1B44006C907DC003F1C0DE6C801200CC
:101B50000001FB6BFC6BEF6BF06BE1C000F0E2C0CF
:101B600001F0E3C002F0010EE127000EE223E323BF
:101B700000C0F6FF01C0F7FF02C0F8FF0900F5CF73
:101B800000F000C0ECF00052D8B4C9EF1DF0EC51E9
:101B9000250A0BE0DFC0E1FFE0C0E2FFECC0E6FF9A
:101BA000DF4BE02BFB4BFC2BD8D7ED6BEE6BEF6BD9
:101BB000F06B23D0EF87010EE127000EE223E32331
:101BC00059D0EF81010EE127000EE223E32352D02A
:101BD000EF83010EE127000EE223E3234BD0F087D1
:101BE000010EE127000EE223E32344D0EF85010E2E
:101BF000E127000EE223E3233DD0E1C0F6FFE2C07F
:101C0000F7FFE3C0F8FF0900F5CF01F001502D0AFE
:101C1000D1E0E1C0F6FFE2C0F7FFE3C0F8FF090042
:101C2000F5CF01F00150200ACCE0E1C0F6FFE2C0A0
:101C3000F7FFE3C0F8FF0900F5CF01F001502B0AD0
:101C4000C7E0E1C0F6FFE2C0F7FFE3C0F8FF09001C
:101C5000F5CF01F00150230AC2E0E1C0F6FFE2C077
:101C6000F7FFE3C0F8FF0900F5CF01F00150300A9B
:101C7000BDE001D09ED7EFA301D0EF91EFA701D037
:101C8000EF95E1C0F6FFE2C0F7FFE3C0F8FF0900FF
:101C9000F5CF00F0000E016E00C003F196EC08F0E5
:101CA000005237E00001ED6BEE6B0001EDC000F07B
:101CB000EEC001F00A0E046E000E056E1BDFE1C0DF
:101CC000F6FFE2C0F7FFE3C0F8FF0900F5CF02F02E
:101CD00002500024ED6F000E0120EE6F300EED5F1C
:101CE000000EEE5B010EE127000EE223E323E1C0CC
:101CF000F6FFE2C0F7FFE3C0F8FF0900F5CF00F000
:101D0000000E016E00C003F196EC08F00052CDE128
:101D100034D0E1C0F6FFE2C0F7FFE3C0F8FF0900EE
:101D2000F5CF01F001502A0A28E1E4C0E9FFE5C03F
:101D3000EAFFEECF00F0EECF01F000C0E9FF01C0F6
:101D4000EAFFEECFEDF0EECFEEF0E4C0E9FFE5C044
:101D5000EAFF020EEE24006E000EEE20016EE4C0DB
:101D6000E1FFE5C0E2FF00C0E6FF01C0E6FF010EB3
:101D70000001E127000EE223E323E1C0F6FFE2C009
:101D8000F7FFE3C0F8FF0900F5CF01F001502E0A7C
:101D900071E10001010EE127000EE223E323E1C01F
:101DA000F6FFE2C0F7FFE3C0F8FF0900F5CF01F04E
:101DB00001502A0A28E1E4C0E9FFE5C0EAFFEECFBE
:101DC00000F0EECF01F000C0E9FF01C0EAFFEECF66
:101DD000EAF0EECFEBF0E4C0E9FFE5C0EAFF020E67
:101DE000EE24006E000EEE20016EE4C0E1FFE5C0BF
:101DF000E2FF00C0E6FF01C0E6FF010EE127000E92
:101E0000E223E32336D0EA6BEB6BE1C0F6FFE2C0DE
:101E1000F7FFE3C0F8FF0900F5CF00F0000E016EF8
:101E200000C003F196EC08F0005223E0EAC000F095
:101E3000EBC001F00A0E046E000E056E5BDEE1C021
:101E4000F6FFE2C0F7FFE3C0F8FF0900F5CF02F0AC
:101E5000025000240001EA6F000E0120EB6F300EEB
:101E6000EA5F000EEB5B010EE127000EE223E323A5
:101E7000CCD704D00001EA6BEB6BF0890001E1C024
:101E800000F0E2C001F0E3C002F0010EE127000E15
:101E9000E223E32300C0F6FF01C0F7FF02C0F8FF12
:101EA0000900F5CFECF0F9D0FBC000F0FCC001F068
:101EB000CDEF1DF0EF89E2D7F0852ED1EF8BF081C9
:101EC0002BD1F08329D1EF8D27D126D1EF8BEF8F46
:101ED00023D1E4C0E9FFE5C0EAFFEECF00F0EECF8A
:101EE00001F000C0E9FF01C0EAFFEECFF7F0EECF4E
:101EF000F8F0E4C0E9FFE5C0EAFF020EEE24006E50
:101F0000000EEE20016EE4C0E1FFE5C0E2FF00C07C
:101F1000E6FF01C0E6FF000EF81902E1000EF71916
:101F200004E11F0EF76F000EF86FF96BFA6BF951B1
:101F3000F725E96EFA51F821EA6EEE520BE0010E38
:101F4000F925006E000EFA21016E00C0F9F001C003
:101F5000FAF0EDD7EA51EB110AE0FA51EB5D02E13C
:101F6000F951EA5D04E2EAC0F9F0EBC0FAF0EE5193
:101F7000FA5D02E1ED51F95D05E2F951ED5FFA51CB
:101F8000EE5B02D0ED6BEE6BEFB716D0EDC000F05C
:101F9000EEC001F0010EED5F000EEE5B005001108F
:101FA0000BE0DFC0E1FFE0C0E2FF200EE66EDF4B9A
:101FB000E02BFB4BFC2BEAD7F9C002F0FAC003F090
:101FC000010EF95D006E000EFA59016E00C0F9F0C5
:101FD00001C0FAF00250031019E0F7C0E9FFF8C0A1
:101FE000EAFFDFC0E1FFE0C0E2FFEECFE6FFDF4B3C
:101FF000E02B010EF725006E000EF821016E00C0E7
:10200000F7F001C0F8F0FB4BFC2BD6D7EFA716D0AA
:10201000EDC000F0EEC001F0010EED5F000EEE5BD2
:10202000005001100BE0DFC0E1FFE0C0E2FF200E36
:10203000E66EDF4BE02BFB4BFC2BEAD78ED5E4C0E2
:10204000E9FFE5C0EAFFEECF00F0EECF01F000C0FF
:10205000E9FF01C0EAFFEECFECF0E4C0E9FFE5C024
:10206000EAFF020EEE24006E000EEE20016EE4C0C8
:10207000E1FFE5C0E2FF00C0E6FF01C0E6FFEC0EB5
:10208000F76F000EF86F010EF96F000EFA6F62D74E
:10209000C00EEF13000EF0133FD0EC51000AD8B47D
:1020A00003D7EC516C0AD8B405D7EC514C0AD8B41C
:1020B00001D7EC51660AD8B4FFD6EC51450AD8B422
:1020C000FDD6EC51650AD8B4FAD6EC51670AD8B4FB
:1020D000F8D6EC516F0AD8B4F6D6EC51640AD8B4ED
:1020E000F4D6EC51690AD8B4F0D6EC51700AD8B4E1
:1020F000EDD6EC51580AD8B4E9D6EC51780AD8B4E8
:10210000E6D6EC51730AD8B4E4D6EC51630A97E0F2
:10211000EC51750ABDE0B3D7000EEF15006EF0511B
:10212000070B016E00500110D8B470EF19F0F0A940
:1021300004D0060EEA6F000EEB6FE4C0E9FFE5C0C5
:10214000EAFFEECF00F0EECF01F000C0E9FF01C0E2
:10215000EAFFEECFF1F0EECFF2F0EECFF3F0EECFFC
:10216000F4F0E4C0E9FFE5C0EAFF040EEE24006EDF
:10217000000EEE20016EE4C0E1FFE5C0E2FF00C00A
:10218000E6FF01C0E6FF046A056A066A076AF1C055
:1021900000F0F2C001F0F3C002F0F4C003F097ECDD
:1021A0000BF0010ED8B0000E006E005205E0F37F78
:1021B000030EEF13000EF013F56BF66BF1C000F099
:1021C000F2C001F0F3C002F0F4C003F0046A056A43
:1021D000066A076A80EC0BF0000ED8A4010E006EB0
:1021E0000052D8B48CD0F4C000F0016A026A036ACD
:1021F000FF0E0016000E01167E0E005E000E015A44
:1022000000C0F5F001C0F6F0010E005E000E015AAC
:1022100000C0F5F001C0F6F0030E046E000E056E6E
:1022200069DC00C0F5F001C0F6F00A0E046E000E85
:10223000056EFEEC0BF000C0F5F001C0F6F0800E6C
:102240000118026E800E025C02E1000E005C05E2E5
:10225000010E0001F55F000EF65B0001F55100086C
:102260000101036FA2EC08F0F1C004F0F2C005F028
:10227000F3C006F0F4C007F0AEEC03F000C0F7F0D6
:1022800001C0F8F002C0F9F003C0FAF0000E046ECD
:10229000000E056E000E066E7F0E076EF7C000F092
:1022A000F8C001F0F9C002F0FAC003F097EC0BF0AF
:1022B000010ED8B0000E006E005206E0010E0001C3
:1022C000F55F000EF65B1BD0000E046E000E056E6F
:1022D000200E066E820E076EF7C000F0F8C001F007
:1022E000F9C002F0FAC003F097EC0BF0000ED8B082
:1022F000010E006E005203E00001F54BF62B0001C9
:10230000800E006E800EF619005C02E1F5510008A7
:1023100003E3010EEC6F02D0F5C0ECF0F0B118D081
:10232000F0A315D0800EF619006E7F0E005C02E15E
:10233000FC0EF55D0BE3800EF619006E800EEB19B6
:10234000005C02E1EA51F55D01E201D001D0F1D378
:10235000EA51EB1106E0F0A304D0010EEA5F000E93
:10236000EB5BEB51000802E1EA51080803E2080EBA
:10237000EC6F02D0EAC0ECF0F1C000F0F2C001F066
:10238000F3C002F0F4C003F0046A056A066A076A43
:1023900080EC0BF0000ED8A4010E006E0052D8B4F1
:1023A0004CD1F5C003F1A2EC08F000C004F001C06C
:1023B00005F002C006F003C007F0F1C000F0F2C063
:1023C00001F0F3C002F0F4C003F0BCEC0CF000C06C
:1023D000F1F001C0F2F002C0F3F003C0F4F000012C
:1023E000EC5100080101036FA2EC08F000C004F0FA
:1023F00001C005F002C006F003C007F0F1C000F014
:10240000F2C001F0F3C002F0F4C003F0BCEC0CF039
:1024100000C0FDF001C0FEF002C0FFF003C000F1FB
:10242000FDC0F1F0FEC0F2F0FFC0F3F000C1F4F027
:10243000FDC000F0FEC001F0FFC002F000C103F0DB
:1024400078EC04F0A9EC0CF000C004F001C005F039
:1024500002C006F003C007F0FDC000F0FEC001F0AE
:10246000FFC002F000C103F062EC0CF0000E046E3D
:10247000000E056E000E066E7E0E076E97EC0BF0DA
:10248000000ED8B0010E006E00521AE0F1C000F04C
:10249000F2C001F0F3C002F0F4C003F0000E046ECD
:1024A000000E056E000E066E7E0E076E23EC01F028
:1024B00000C0F1F001C0F2F002C0F3F003C0F4F08C
:1024C000F1C000F0F2C001F0F3C002F0F4C003F07C
:1024D00078EC04F00001EC51010F096E0A6A000E5D
:1024E0000A2209C004F00AC005F0000E0ABEFF0E61
:1024F000066E076E04360490053606360736043637
:1025000004900536063607361A0E0424F66E430E7E
:102510000520F76E000E0620F86E0900F5CF05F0D5
:102520000900F5CF06F00900F5CF07F00900F5CF57
:1025300008F00850035C08E10750025C05E1065012
:10254000015C02E10550005C1EE30001F1C000F0F7
:10255000F2C001F0F3C002F0F4C003F0CD0E046E3F
:10256000CC0E056E4C0E066E7B0E076EAEEC03F0C5
:1025700000C0F1F001C0F2F002C0F3F003C0F4F0CB
:10258000F54BF62B5AD0F1C000F0F2C001F0F3C0C9
:1025900002F0F4C003F078EC04F0ECC004F0000E9C
:1025A000056E066E076E043604900536063607364D
:1025B000043604900536063607361A0E0424F66EE5
:1025C000430E0520F76E000E0620F86E0900F5CFC9
:1025D00005F00900F5CF06F00900F5CF07F0090076
:1025E000F5CF08F00850035C08E10750025C05E1F4
:1025F0000650015C02E10550005C1FE20001F1C0E1
:1026000000F0F2C001F0F3C002F0F4C003F0000EDD
:10261000046E000E056E200E066E820E076EAEEC86
:1026200003F000C0F1F001C0F2F002C0F3F003C00B
:10263000F4F0010EF55F000EF65B0001F0A394D0FC
:10264000F0B792D0800E000A006E800EEB19005C8D
:1026500002E1EA510A0804E20A0EEA6F000EEB6F8B
:10266000F1C000F0F2C001F0F3C002F0F4C003F0DA
:1026700078EC04F000C0F7F001C0F8F002C0F9F007
:1026800003C0FAF0F751F811F911FA1142E00A0EFD
:10269000046E000E056E066E076EF7C000F0F8C0FF
:1026A00001F0F9C002F0FAC003F020EC07F008C016
:1026B00000F009C001F00AC002F00BC003F0000EE8
:1026C000046E031808E10450021805E104500118D3
:1026D00002E10050000A1DE1010EEA5F000EEB5B13
:1026E0000A0E046E000E056E066E076EF7C000F04F
:1026F000F8C001F0F9C002F0FAC003F020EC07F0D6
:1027000000C0F7F001C0F8F002C0F9F003C0FAF021
:10271000B9D7800EEB19006E800E005C02E1EC511F
:10272000EA5D22E2EA51EC5D0101036FA2EC08F0E0
:1027300000C004F001C005F002C006F003C007F0BD
:10274000F1C000F0F2C001F0F3C002F0F4C003F0F9
:10275000BCEC0CF000C0F1F001C0F2F002C0F3F0EC
:1027600003C0F4F0EAC0ECF0050E0001EA25006EAB
:10277000000EEB21016E0050ED5F0150EE5BEA515F
:10278000EB1103E1F0B701D004D0010EED5F000EB4
:10279000EE5B030EEF15006EF0C001F0000E0116A7
:1027A0000050011004E0010EED5F000EEE5BEFA59E
:1027B00039D0EFA312D0EFA103D02D0E7D6E02D041
:1027C0002B0E7D6EDFC0E1FFE0C0E2FF7DC0E6FFC3
:1027D000DF4BE02BFB4BFC2B0CD0EFA10AD0DFC072
:1027E000E1FFE0C0E2FF200EE66EDF4BE02BFB4B8B
:1027F000FC2B800E006E800EEE19005C02E1ED51A4
:1028000000080FE2DFC0E1FFE0C0E2FF300EE66E3D
:10281000DF4BE02BFB4BFC2B010EED5F000EEE5B64
:10282000E8D73AD0EFB718D0800E006E800EEE19C0
:10283000005C02E1ED5100080FE2DFC0E1FFE0C003
:10284000E2FF200EE66EDF4BE02BFB4BFC2B010E74
:10285000ED5F000EEE5BE8D7EFA312D0EFA103D03F
:102860002D0E7E6E02D02B0E7E6EDFC0E1FFE0C02B
:10287000E2FF7EC0E6FFDF4BE02BFB4BFC2B0CD0D6
:10288000EFA10AD0DFC0E1FFE0C0E2FF200EE66E5C
:10289000DF4BE02BFB4BFC2BF1C000F0F2C001F052
:1028A000F3C002F0F4C003F078EC04F000C0F7F0DD
:1028B00001C0F8F002C0F9F003C0FAF0ECC000F07B
:1028C000000E016E026E036E003600900136023675
:1028D0000336003600900136023603361A0E002405
:1028E000F66E430E0120F76E000E0220F86E09000E
:1028F000F5CF04F00900F5CF05F00900F5CF06F09B
:102900000900F5CF07F0F7C000F0F8C001F0F9C0FA
:1029100002F0FAC003F020EC07F0300E0026DFC012
:10292000E1FFE0C0E2FF00C0E6FFDF4BE02BFB4B26
:10293000FC2BEA51EB1103E1F0B701D06FD0DFC0FF
:10294000E1FFE0C0E2FF2E0EE66EDF4BE02BFB4B1B
:10295000FC2BEC51EA5F000EEB5BEC534DE0EC0717
:10296000ECC000F0000E016E026E036E00360090A7
:102970000136023603360036009001360236033641
:102980001A0E0024F66E430E0120F76E000E022090
:10299000F86E0900F5CF04F00900F5CF05F0090045
:1029A000F5CF06F00900F5CF07F0F7C000F0F8C04A
:1029B00001F0F9C002F0FAC003F020EC07F00A0EB3
:1029C000046E000E056E066E076E20EC07F008C060
:1029D00000F009C001F00AC002F00BC003F0300E95
:1029E0000026DFC0E1FFE0C0E2FF00C0E6FFDF4BF2
:1029F000E02BFB4BFC2BB1D7EA51EB110FE0DFC012
:102A0000E1FFE0C0E2FF300EE66EDF4BE02BFB4B58
:102A1000FC2B010EEA5F000EEB5BEED7EFAB0BD0A9
:102A2000DFC0E1FFE0C0E2FF450EE66EDF4BE02BCA
:102A3000FB4BFC2B0AD0DFC0E1FFE0C0E2FF650EDC
:102A4000E66EDF4BE02BFB4BFC2B800EF619006E85
:102A5000800E005C02E1000EF55D11E2F551000808
:102A6000F56FF651000EF657DFC0E1FFE0C0E2FF60
:102A70002D0EE66EDF4BE02BFB4BFC2B0AD0DFC0AC
:102A8000E1FFE0C0E2FF2B0EE66EDF4BE02BFB4BDD
:102A9000FC2B0A0E046E000E056EF5C000F0F6C0A9
:102AA00001F0FEEC0BF0300E0026DFC0E1FFE0C0CD
:102AB000E2FF00C0E6FF0001DF4BE02BFB4BFC2BED
:102AC0000A0E046E000E056EF5C000F0F6C001F0AF
:102AD000FEEC0BF008C000F009C001F0300E00263B
:102AE000DFC0E1FFE0C0E2FF00C0E6FF0001DF4B16
:102AF000E02BFB4BFC2BEFA71AD0800E006E800E54
:102B0000EE19005C02E1ED51000811E2DFC0E1FFC7
:102B1000E0C0E2FF200EE66EDF4BE02BFB4BFC2B10
:102B2000010EED5F000EEE5BED51EE11EFE1ADEF4A
:102B30000DF0F0A3F8D0800EF619006E800E005C48
:102B400002E1000EF55D0AE2010EF55D006E000E79
:102B5000F659016E0050EA5F0150EB5BF1C000F0E6
:102B6000F2C001F0F3C002F0F4C003F078EC04F01E
:102B700000C0F7F001C0F8F002C0F9F003C0FAF0AD
:102B8000010EEC6FEC510A0A34E0ECC000F0000ECC
:102B9000016E026E036E0036009001360236033677
:102BA000003600900136023603361A0E0024F66E07
:102BB000430E0120F76E000E0220F86E0900F5CFDB
:102BC00001F00900F5CF02F00900F5CF03F009008C
:102BD000F5CF04F00450FA5D08E10350F95D05E11A
:102BE0000250F85D02E10150F75D01E202D0EC2BEA
:102BF000C9D7EC51EA5D0101016F000E0001EB59EC
:102C00000101026F01C1EAF002C1EBF0F7C000F070
:102C1000F8C001F0F9C002F0FAC003F0A9EC0CF022
:102C200000C004F001C005F002C006F003C007F0C8
:102C3000F1C000F0F2C001F0F3C002F0F4C003F004
:102C400062EC0CF000C0FDF001C0FEF002C0FFF02D
:102C500003C000F101C103F1A2EC08F0FDC004F0D3
:102C6000FEC005F0FFC006F000C107F0AEEC03F0B7
:102C7000000E046E000E056E000E066E7E0E076ED0
:102C800023EC01F078EC04F000C0F7F001C0F8F09C
:102C900002C0F9F003C0FAF00001EA51EB1143E081
:102CA0000A0E046E000E056E066E076EF7C000F089
:102CB000F8C001F0F9C002F0FAC003F020EC07F010
:102CC00008C000F009C001F00AC002F00BC003F018
:102CD000000E046E031808E10450021805E10450C8
:102CE000011802E10050000A1EE100010A0E046E04
:102CF000000E056E066E076EF7C000F0F8C001F01A
:102D0000F9C002F0FAC003F020EC07F000C0F7F0C1
:102D100001C0F8F002C0F9F003C0FAF0010EEA5F5A
:102D2000000EEB5BB9D70001800E006E800EEB1930
:102D3000005C02E1EA510C0816E3EAC003F1ABECD7
:102D400005F0F1C004F0F2C005F0F3C006F0F4C0E5
:102D500007F023EC01F000C0F1F001C0F2F002C076
:102D6000F3F003C0F4F0F1C000F0F2C001F0F3C0E2
:102D700002F0F4C003F0046A056A066A076A80EC90
:102D80000BF0000ED8A4010E006E0052D8B478D01B
:102D9000F1C000F0F2C001F0F3C002F0F4C003F0A3
:102DA00078EC04F0000E046E031808E104500218D9
:102DB00005E10450011802E10050000A61E1800EB3
:102DC000006E800E0001F619005C02E1F551010869
:102DD00057E2F5C003F1A2EC08F000C004F001C016
:102DE00005F002C006F003C007F0F1C000F0F2C029
:102DF00001F0F3C002F0F4C003F0BCEC0CF05F0E85
:102E0000046E700E056E090E066E810E076E97EC4D
:102E10000BF0010ED8B0000E006E005206E0090E55
:102E20000001F55F000EF65B05D00001080EF55FAE
:102E3000000EF65BF5C003F1A2EC08F000C004F050
:102E400001C005F002C006F003C007F0F1C000F0B9
:102E5000F2C001F0F3C002F0F4C003F0BCEC0CF0DF
:102E600078EC04F000C0F7F001C0F8F002C0F9F00F
:102E700003C0FAF00001F16BF26BF36BF46B39D025
:102E80000001F1C000F0F2C001F0F3C002F0F4C0A4
:102E900003F078EC04F000C0F7F001C0F8F002C0D5
:102EA000F9F003C0FAF0F7C000F0F8C001F0F9C083
:102EB00002F0FAC003F0A9EC0CF000C004F001C06D
:102EC00005F002C006F003C007F0F1C000F0F2C048
:102ED00001F0F3C002F0F4C003F062EC0CF000C0AB
:102EE000F1F001C0F2F002C0F3F003C0F4F0F56BB2
:102EF000F66B010EEC6FEC510A0A34E0ECC000F006
:102F0000000E016E026E036E00360090013602362E
:102F10000336003600900136023603361A0E0024BE
:102F2000F66E430E0120F76E000E0220F86E0900C7
:102F3000F5CF01F00900F5CF02F00900F5CF03F05D
:102F40000900F5CF04F00450FA5D08E10350F95D83
:102F500005E10250F85D02E10150F75D01E202D0A7
:102F6000EC2BC9D7EC51EA25006E000EEB21016E67
:102F7000F5510026F65101220050ED5F0150EE5B45
:102F8000F0B704D0EA51EB1101E104D0010EED5F7E
:102F9000000EEE5B030EEF15006EF0C001F0000EA8
:102FA00001160050011004E0010EED5F000EEE5B13
:102FB000EFA539D0EFA312D0EFA103D02D0E7F6E75
:102FC00002D02B0E7F6EDFC0E1FFE0C0E2FF7FC0CA
:102FD000E6FFDF4BE02BFB4BFC2B0CD0EFA10AD024
:102FE000DFC0E1FFE0C0E2FF200EE66EDF4BE02B2A
:102FF000FB4BFC2B800E006E800EEE19005C02E194
:10300000ED5100080FE2DFC0E1FFE0C0E2FF300E4B
:10301000E66EDF4BE02BFB4BFC2B010EED5F000E51
:10302000EE5BE8D73AD0EFB718D0800E006E800E76
:10303000EE19005C02E1ED5100080FE2DFC0E1FF94
:10304000E0C0E2FF200EE66EDF4BE02BFB4BFC2BDB
:10305000010EED5F000EEE5BE8D7EFA312D0EFA1FB
:1030600003D02D0E806F02D02B0E806FDFC0E1FFEA
:10307000E0C0E2FF80C0E6FFDF4BE02BFB4BFC2B08
:103080000CD0EFA10AD0DFC0E1FFE0C0E2FF200ECC
:10309000E66EDF4BE02BFB4BFC2BECC000F0EC07AB
:1030A00000524CE0ECC000F0000E016E026E036EA8
:1030B00000360090013602360336003600900136A5
:1030C000023603361A0E0024F66E430E0120F76E08
:1030D000000E0220F86E0900F5CF04F00900F5CFCC
:1030E00005F00900F5CF06F00900F5CF07F0F7C0AD
:1030F00000F0F8C001F0F9C002F0FAC003F020ECD3
:1031000007F00A0E046E000E056E066E076E20ECC8
:1031100007F008C000F009C001F00AC002F00BC0BF
:1031200003F0300E0026DFC0E1FFE0C0E2FF00C088
:10313000E6FFDF4BE02BFB4BFC2BAFD7800E006E86
:10314000800EF619005C02E1F55100080FE2DFC0C5
:10315000E1FFE0C0E2FF300EE66EDF4BE02BFB4B01
:10316000FC2B010EF55F000EF65BE8D7800E000A1F
:10317000006E800EEB19005C02E1EA51080803E2E0
:10318000080EEC6F02D0EAC0ECF0EC51EA5F000EE2
:10319000EB5BEC5303E1F0B701D00AD0DFC0E1FFF5
:1031A000E0C0E2FF2E0EE66EDF4BE02BFB4BFC2B6C
:1031B000ECC003F1A2EC08F0F1C004F0F2C005F09D
:1031C000F3C006F0F4C007F0AEEC03F013EC05F02A
:1031D00000C0F7F001C0F8F002C0F9F003C0FAF047
:1031E0000001EC534DE0EC07ECC000F0000E016E66
:1031F000026E036E0036009001360236033600364A
:1032000000900136023603361A0E0024F66E430E85
:103210000120F76E000E0220F86E0900F5CF04F0D1
:103220000900F5CF05F00900F5CF06F00900F5CF4C
:1032300007F0F7C000F0F8C001F0F9C002F0FAC0E2
:1032400003F020EC07F00A0E046E000E056E066E09
:10325000076E20EC07F008C000F009C001F00AC0BA
:1032600002F00BC003F0300E0026DFC0E1FFE0C02B
:10327000E2FF00C0E6FFDF4BE02BFB4BFC2BB0D79F
:10328000EA51EB110FE0DFC0E1FFE0C0E2FF300EDA
:10329000E66EDF4BE02BFB4BFC2B010EEA5F000ED2
:1032A000EB5BEED7EFA71AD0800E006E800EEE1902
:1032B000005C02E1ED51000811E2DFC0E1FFE0C077
:1032C000E2FF200EE66EDF4BE02BFB4BFC2B010EEA
:1032D000ED5F000EEE5BED51EE11EFE1ADEF0DF0A5
:1032E000C00EEF15016EF0C002F0000E0216000EC7
:1032F000021802E1000E0118D8A480D0EFA927D04F
:10330000E4C0E9FFE5C0EAFFEECF00F0EECF01F048
:1033100000C0E9FF01C0EAFFEECFF7F0EECFF8F012
:10332000EECFF9F0EECFFAF0E4C0E9FFE5C0EAFF36
:10333000040EEE24006E000EEE20016EE4C0E1FFEC
:10334000E5C0E2FF00C0E6FF01C0E6FF2FD0E4C009
:10335000E9FFE5C0EAFFEECF00F0EECF01F000C0DC
:10336000E9FF01C0EAFFEECF00F0EECF01F0000E62
:1033700001BEFF0E026E036E00C0F7F001C0F8F050
:1033800002C0F9F003C0FAF0E4C0E9FFE5C0EAFFCB
:10339000020EEE24006E000EEE20016EE4C0E1FF8E
:1033A000E5C0E2FF00C0E6FF01C0E6FF800EFA19AB
:1033B000006E800E005C08E1000EF95D05E1000E74
:1033C000F85D02E1000EF75D18E2030EEF13000E48
:1033D000F013006A016A026A036AF751005EF8514D
:1033E000015AF951025AFA51035A00C0F7F001C0CC
:1033F000F8F002C0F9F003C0FAF04ED0EFA927D0E0
:10340000E4C0E9FFE5C0EAFFEECF00F0EECF01F047
:1034100000C0E9FF01C0EAFFEECFF7F0EECFF8F011
:10342000EECFF9F0EECFFAF0E4C0E9FFE5C0EAFF35
:10343000040EEE24006E000EEE20016EE4C0E1FFEB
:10344000E5C0E2FF00C0E6FF01C0E6FF25D0E4C012
:10345000E9FFE5C0EAFFEECF00F0EECF01F000C0DB
:10346000E9FF01C0EAFFEECFF7F0EECFF8F0000E73
:10347000F96FFA6FE4C0E9FFE5C0EAFF020EEE243F
:10348000006E000EEE20016EE4C0E1FFE5C0E2FF39
:1034900000C0E6FF01C0E6FF000EEB1902E1000EDE
:1034A000EA190FE1000E006EFA1908E10050F9194F
:1034B00005E10050F81902E1F751000A02E1EA4B78
:1034C000EB2BC00EEF15006E00C005F0AED0010E64
:1034D000EC6FEC510A0A34E0ECC000F0000E016E13
:1034E000026E036E00360090013602360336003657
:1034F00000900136023603361A0E0024F66E430E93
:103500000120F76E000E0220F86E0900F5CF01F0E1
:103510000900F5CF02F00900F5CF03F00900F5CF5F
:1035200004F00450FA5D08E10350F95D05E1025032
:10353000F85D02E10150F75D01E202D0EC2BC9D742
:1035400082D0010EEC6FEC51080A34E0ECC000F0C0
:10355000000E016E026E036E0036009001360236D8
:10356000033600360090013602360336420E002440
:10357000F66E430E0120F76E000E0220F86E090071
:10358000F5CF01F00900F5CF02F00900F5CF03F007
:103590000900F5CF04F00450FA5D08E10350F95D2D
:1035A00005E10250F85D02E10150F75D01E202D051
:1035B000EC2BC9D748D0010EEC6FEC510C0A34E06B
:1035C000ECC000F0000E016E026E036E003600903B
:1035D00001360236033600360090013602360336D5
:1035E000EA0E0024F66E420E0120F76E000E022055
:1035F000F86E0900F5CF01F00900F5CF02F00900DF
:10360000F5CF03F00900F5CF04F00450FA5D08E1AE
:103610000350F95D05E10250F85D02E10150F75DEC
:1036200001E202D0EC2BC9D70ED00550000AD8B465
:103630004ED70550C00AD8B44AD70550800A81E059
:103640000550400AB8E0800E006E800EEB19005C59
:1036500002E1EA51EC5D03E2EAC0ECF00DD0800E2D
:10366000EB19006E800E005C02E1EC51EA5D04E2B1
:10367000ECC0EAF0000EEB6FED51EE110EE0030E20
:10368000EF15006EF0C001F0000E011600500110A1
:1036900004E0010EED5F000EEE5B800EEB19006E94
:1036A000800EEE19005C02E1ED51EA5D05E2EA519F
:1036B000ED5FEB51EE5B02D0ED6BEE6BC40EEF15E0
:1036C000016EF051080B026E0250080A02E1400E32
:1036D000011808E1ED51EE1104E0010EED5F000E5E
:1036E000EE5B1CD0C00EEF15016EF051080B026EA0
:1036F0000250080A02E1800E011810E1800E006EEF
:10370000800EEE19005C02E1ED51020805E2020EA6
:10371000ED5F000EEE5B02D0ED6BEE6BEFA55DD0C2
:10372000EFA312D0EFA103D02D0EE66F02D02B0E27
:10373000E66FDFC0E1FFE0C0E2FFE6C0E6FFDF4B7F
:10374000E02BFB4BFC2B34D0EFA10BD0DFC0E1FF13
:10375000E0C0E2FF200EE66EDF4BE02BFB4BFC2BC4
:1037600027D0C00EEF15016EF051080B026E02500B
:10377000080A02E1800E01181BE1DFC0E1FFE0C092
:10378000E2FF300EE66EDF4BE02BFB4BFC2BEFAB8A
:1037900003D0580EE76F02D0780EE76FDFC0E1FF6D
:1037A000E0C0E2FFE7C0E6FFDF4BE02BFB4BFC2B6A
:1037B000ED51EE1111E0DFC0E1FFE0C0E2FF300E9D
:1037C000E66EDF4BE02BFB4BFC2B010EED5F000E9A
:1037D000EE5BED51EE11EFE174D0ED51EE1113E01F
:1037E000EFB711D0DFC0E1FFE0C0E2FF200EE66ED0
:1037F000DF4BE02BFB4BFC2B010EED5F000EEE5B75
:10380000ED51EE11EFE1EFA312D0EFA103D02D0E99
:10381000E86F02D02B0EE86FDFC0E1FFE0C0E2FFEF
:10382000E8C0E6FFDF4BE02BFB4BFC2B0CD0EFA1FD
:103830000AD0DFC0E1FFE0C0E2FF200EE66EDF4B02
:10384000E02BFB4BFC2BC00EEF15016EF051080B6B
:10385000026E0250080A02E1400E01180BE1DFC0BF
:10386000E1FFE0C0E2FF300EE66EDF4BE02BFB4BEA
:10387000FC2B27D0C00EEF15016EF051080B026E25
:103880000250080A02E1800E01181BE1DFC0E1FFCF
:10389000E0C0E2FF300EE66EDF4BE02BFB4BFC2B73
:1038A000EFAB03D0580EE96F02D0780EE96FDFC09E
:1038B000E1FFE0C0E2FFE9C0E6FFDF4BE02BFB4B9E
:1038C000FC2B800E006E800EEB19005C02E1EA51C9
:1038D000EC5D0BE2DFC0E1FFE0C0E2FF300EE66E20
:1038E000DF4BE02BFB4BFC2BECD7EAC000F0EBC02E
:1038F00001F0010EEA5F000EEB5B00500110D8B43E
:103900002AD1C00EEF15006E00C0FDF00AD1EAC04A
:1039100000F0EBC001F0000EEBBFFF0E026E036E75
:10392000003600900136023603360036009001362C
:10393000023603361A0E0024F66E430E0120F76E8F
:10394000000E0220F86E0900F5CF04F00900F5CF53
:1039500005F00900F5CF06F00900F5CF07F0F7C034
:1039600000F0F8C001F0F9C002F0FAC003F020EC5A
:1039700007F00A0E046E000E056E066E076E20EC50
:1039800007F008C000F009C001F00AC002F00BC047
:1039900003F0300E0024EC6FD3D0EFAB45D0EAC07B
:1039A00000F0EBC001F0000EEBBFFF0E026E036EE5
:1039B000003600900136023603360036009001369C
:1039C00002360336420E0024F66E430E0120F76ED7
:1039D000000E0220F86E0900F5CF04F00900F5CFC3
:1039E00005F00900F5CF06F00900F5CF07F0F7C0A4
:1039F00000F0F8C001F0F9C002F0FAC003F020ECCA
:103A000007F00F0E0016000E011602160316840EA4
:103A10000024F66E430E0120F76E000E0220F86EB1
:103A20000900F5CFECF044D0EAC000F0EBC001F0A3
:103A3000000EEBBFFF0E026E036E003600900136E3
:103A40000236033600360090013602360336420E47
:103A50000024F66E430E0120F76E000E0220F86E71
:103A60000900F5CF04F00900F5CF05F00900F5CF06
:103A700006F00900F5CF07F0F7C000F0F8C001F03C
:103A8000F9C002F0FAC003F020EC07F00F0E0016A8
:103A9000000E011602160316730E0024F66E430E76
:103AA0000120F76E000E0220F86E0900F5CFECF051
:103AB00047D0EAC000F0EBC001F0000EEBBFFF0EF4
:103AC000026E036E00360090013602360336003671
:103AD0000090013602360336EA0E0024F66E420EDE
:103AE0000120F76E000E0220F86E0900F5CF04F0F9
:103AF0000900F5CF05F00900F5CF06F00900F5CF74
:103B000007F0F7C000F0F8C001F0F9C002F0FAC009
:103B100003F020EC07F0070E0014EC6F300EEC27DA
:103B20000FD0FD51000AD8B4F2D6FD51C00AD8B466
:103B3000EED6FD51800AD8B430D7FD51400AB9E025
:103B4000DFC0E1FFE0C0E2FFECC0E6FFDF4BE02BAF
:103B5000FB4BFC2BCAD6EFA71AD0800E006E800E4E
:103B6000EE19005C02E1ED51000811E2DFC0E1FF57
:103B7000E0C0E2FF200EE66EDF4BE02BFB4BFC2BA0
:103B8000010EED5F000EEE5BED51EE11EFE1ADEFDA
:0C3B90000DF0FBC000F0FCC001F01200C2
:103B9C00740E7B6E000E7C6E6FC0DFF070C0E0F0B8
:103BAC0071C0E1F072C0E2F073C0E3F07B0E000173
:103BBC00E46F000EE56FA8EC0DF000C079F001C0C9
:103BCC007AF000506F24E16E01507020E26EE66ACC
:0A3BDC0079C000F07AC001F0120079
:103BE6000FD0800E6F6E19D0C00E6F6E16D0940E69
:103BF6006F6E13D0D40E6F6E10D0800E6F6E0DD018
:103C06006F50010AEEE06F50020AEEE06F50030AB1
:103C1600EEE06F50040AEEE0F0D77004006E6F50CD
:103C2600002600C06FF06C8000C003F166EC0CF05B
:0E3C36006C9071C003F166EC0CF06C80120013
:103C44000FD0800E6F6E19D0C00E6F6E16D0940E0A
:103C54006F6E13D0D40E6F6E10D0800E6F6E0DD0B9
:103C64006F50010AEEE06F50020AEEE06F50030A53
:103C7400EEE06F50040AEEE0F0D77004006E6F506F
:103C8400002600C06FF000C003F166EC0CF06C90ED
:103C9400736A73507124E96E000E7220EA6EEE525C
:103CA4000CE073507124E96E000E7220EA6EEECFC0
:0E3CB4007DF0A2EC0DF0732AECD76C801200AC
:103CC2000900F5CFE6FF0006FBE10106F9E112006B
:103CD200959A959895909592959495968C9A8C989C
:103CE2008C968C948C928C9053EC04F053EC04F0F0
:103CF20053EC04F08C828C808C8A72EC04F08C9AE7
:103D020053EC04F08C8A72EC04F08C9A53EC04F0BD
:103D12008C8A72EC04F08C9A53EC04F08C908C8AAE
:103D220072EC04F08C9A53EC04F08C8A72EC04F07E
:103D32008C9A8C928C868C8A72EC04F08C9A53EC5E
:103D420004F08C968C808C8A72EC04F08C9A8C90A5
:103D52008C8A72EC04F08C9A53EC04F08C8A72EC2C
:103D620004F08C9A8C808C8A72EC04F08C9A53EC5E
:103D720004F08C908C8A72EC04F08C9A8C868C8481
:103D82008C828C808C8A72EC04F08C9A53EC04F056
:043D92006C8012002F
:103D9600DDEC21F00001D86BD96BDA6BDB6BDC6BE9
:103DA600DD6B4D0EDE6F956A91DF620E0C6E650E51
:103DB6000D6E0D2EFED70C2EFCD700000000010E56
:103DC6000101036F66EC0CF00C0E036F66EC0CF051
:103DD600010E6F6E010E706E150E716E000E726E14
:103DE6002EDF020E6F6E010E706E240EF66E420E00
:103DF600F76E000EF86E810EE16E000EE26E110E89
:103E0600006E010E016E5ADF810E716E000E726E2B
:103E160016DF1A0E0B6E5E0E0C6E6E0E0D6E0D2EEE
:103E2600FED70C2EFCD70B2EFAD70000010E036F1F
:103E360066EC0CF0260E6F6E000E706E950E716EAF
:103E4600430E726E000E736EDB0E746E0F0E756E81
:103E5600490E766E800E776EDEC078F09CDE020E1E
:103E66006F6E010E706E260E716E000E726EE7DEBC
:103E7600010E6F6E080E706E7A0E716EB1DE270E31
:103E86000B6E0D0E0C6E260E0D6E0D2EFED70C2E25
:103E9600FCD70B2EFAD70000010E036F66EC0CF070
:103EA600010E6F6E010E706E430E0001926F680E6A
:103EB600936F610E946F720E956F200E966F430E80
:103EC600976F470E986F3A0E996F200E9A6F9B6BFD
:103ED600920E716E000E726EB2DE010E6F6E010EE4
:103EE600706E540E00019C6F650E9D6F730E9E6F73
:103EF600740E9F6F200EA06F4C0EA16F430EA26F23
:103F0600440EA36F200EA46F310EA56F360EA66F5A
:103F1600780EA76F320EA86FA96B9C0E716E000EFD
:103F2600726E8DDE020E6F6E010E706E500E000107
:103F3600AA6F490EAB6F430EAC6F310EAD6F380EE4
:103F4600AE6F460EAF6F340EB06F360EB16F320ED7
:103F5600B26F300EB36FB46BAA0E716E000E726E36
:103F66006EDE020E6F6E0C0E706E200E716E38DEF7
:103F76000F0E036F66EC0CF0330E0B6EBB0E0C6E61
:103F8600DF0E0D6E0D2EFED70C2EFCD70B2EFAD79C
:103F9600000000000C0E036F66EC0CF0010E036FC0
:103FA60066EC0CF00B0E0B6E260E0C6E5D0E0D6E97
:103FB6000D2EFED70C2EFCD70B2EFAD700000000D4
:103FC600010E6F6E010E706E580EF66E420EF76E93
:103FD600000EF86EB50EE16E000EE26E110E006E6A
:103FE600010E016E6BDEB50E716E000E726E27DE6F
:103FF600020E6F6E010E706E3A0E0001C66F290E2C
:10400600C76F2D0EC86F3E0EC96FCA6BC60E716E96
:10401600000E726E14DE270E0B6E0D0E0C6E260E43
:104026000D6E0D2EFED70C2EFCD70B2EFAD70000E8
:10403600010E036F66EC0CF00B0E0B6E260E0C6E6B
:104046005D0E0D6E0D2EFED70C2EFCD70B2EFAD75D
:1040560000000000010E6F6E010E706E480E00012A
:10406600CB6F6F0ECC6F6C0ECD6F610ECE6F200EC8
:10407600CF6F610ED06F200ED16F740ED26F6F0EA0
:10408600D36F640ED46F6F0ED56F730ED66FD76B6A
:10409600CB0E716E000E726ED2DD0D0E0B6EAF0E74
:1040A6000C6EB60E0D6E0D2EFED70C2EFCD70B2EFB
:1040B600FAD700006D6A6E6A800E6E18006E800E6A
:1040C600005C02E10F0E6D5C15E21C0E036F66ECE0
:1040D6000CF0080E0B6E9D0E0C6E050E0D6E0D2E61
:1040E600FED70C2EFCD70B2EFAD7000000006D4A27
:1040F6006E2AE2D7080E0B6E9D0E0C6E050E0D6E27
:104106000D2EFED70C2EFCD70B2EFAD70000000082
:104116006D6A6E6A800E6E18006E800E005C02E19B
:104126000F0E6D5C15E2180E036F66EC0CF0080EB0
:104136000B6E9D0E0C6E050E0D6E0D2EFED70C2E03
:10414600FCD70B2EFAD7000000006D4A6E2AE2D784
:10415600010E036F66EC0CF00B0E0B6E260E0C6E4A
:104166005D0E0D6E0D2EFED70C2EFCD70B2EFAD73C
:10417600000000003A0E6F6E000E706EB10E716E8A
:10418600430E726E000E736ED8C074F0D9C075F00F
:1041960002DD010E6F6E010E706E3A0E716E000E2C
:1041A600726E4DDD3A0E6F6E000E706EA40E716E5D
:1041B600430E726E000E736EDAC074F0DBC075F0DB
:1041C600DCC076F0DDC077F0E6DC020E6F6E010E25
:1041D600706E3A0E716E000E726E31DD270E0B6E2A
:1041E6000D0E0C6E260E0D6E0D2EFED70C2EFCD768
:1041F6000B2EFAD70000010E036F66EC0CF0030ECF
:104206000B6E8A0E0C6E550E0D6E0D2EFED70C2EF5
:0E421600FCD70B2EFAD7000000005FD6FFD7B2
:1043BA0010EE15F0110E006E010E016E620EF66E11
:0E43CA00430EF76E000EF86E61EC1EF012004E
:1042240050494320206573206C61206F6E646121C6
:014234000089
:0A423500436861722043473A2000FD
:0E423F0054657374204C4344203136783200AD
:0B424D0050494331384634363230000F
:10425800434752414D2043617261637465726573CF
:014268000055
:054269003A292D3E0082
:0D426E00486F6C61206120746F646F7300F5
:02427B00000041
:04427D00000000003D
:014281004DEF
:104282000000007FCDCC4C7B0AD723786F120375D8
:1042920017B75171ACC5276EBD37066B95BF566710
:1042A20077CC2B645F700961FFE65B5D08E53C3CFF
:0442B2006042221B29
:1042B6000000007F000020820000488500007A8808
:1042C60000401C8C0050438F0024749280961896F0
:1042D60020BC3E99286B6E9CF90215A0EC782DC186
:0442E600CAF249E2ED
:1042EA000100000008000000400000000002000079
:1042FA000010000000800000000004000000200000
:10430A00000000010000000800000040000000005A
:10431A00010000000A00000064000000E803000039
:10432A0010270000A086010040420F0080969800E6
:08433A0000E1F50500CA9A3B01
:104342000100000010000000000100000010000049
:104352000000010000001000000000010000001039
:0A4362004C4344206B65793A2000BB
:07436C00286E756C6C29003E
:1043730030313233343536373839616263646566D8
:014383000039
:104384003031323334353637383941424344454687
:014394000028
:0F439500202025302E3266202020202025630096
:0D43A400466C6F61743A2025302E326600A1
:0843B100496E743A20257500E5
:020000040030CA
:0D000100011E1EFF8381FF0FC00FE00F40A6
:00000001FF
