:10000000F8EF00F00000000000EF00F0000000003A
:0A0010000000000000000000F3D71C
:0C001C00000000000000000000001200C6
:10002800240E0C6EB50E0D6E0D2EFED70C2EFCD7C1
:06003800000000001200B0
:0A003E00530E0D6E0D2EFED71200BA
:1000480035BE02D08C9601D08C8635BC02D08C94FB
:1000580001D08C8435BA02D08C9201D08C8235B80C
:1000680002D08C9001D08C801DB002D08C8801D039
:100078008C988C8ACFDF8C9A35B602D08C9601D0BA
:100088008C8635B402D08C9401D08C8435B202D0E1
:100098008C9201D08C8235B002D08C9001D08C80AB
:1000A8001DB002D08C8801D08C988C8AB3DF8C9AD2
:0C00B8001DA002D0B5DF01D0BEDF120099
:0C00C4001D9034C035F0BEDF1D8012001E
:1000D0000900F5CFE6FF0006FBE10106F9E1120099
:1000E000959A959895909592959495968C9A8C98CA
:1000F0008C968C948C928C9097DF96DF95DF8C8217
:100100008C808C8A8BDF8C9A8FDF8C8A87DF8C9A2D
:100110008BDF8C8A83DF8C9A87DF8C908C8A7EDFE2
:100120008C9A82DF8C8A7ADF8C9A8C928C868C8A6D
:1001300075DF8C9A79DF8C968C808C8A6FDF8C9A35
:100140008C908C8A6BDF8C9A6FDF8C8A67DF8C9A3D
:100150008C808C8A63DF8C9A67DF8C908C8A5EDF60
:100160008C9A8C868C848C828C808C8A57DF8C9ABB
:060170005BDF1D801200A0
:100176000FD0800E2F6E19D0C00E2F6E16D0940E93
:100186002F6E13D0D40E2F6E10D0800E2F6E0DD082
:100196002F50010AEEE02F50020AEEE02F50030A1C
:1001A600EEE02F50040AEEE0F0D73004006E2F5038
:1001B600002600C02FF000C035F043DF1D90336AE3
:1001C60033503124E96E000E3220EA6EEE520BE017
:1001D60033503124E96E000E3220EA6EEECF34F051
:0A01E6006EDF332AEDD71D801200F2
:1001F0004C0E156E630E166E640E176E340E186E6E
:10020000620E196E690E1A6E740E1B6E1C6A956A68
:1002100067DF010E356E18DF0C0E356E15DF010E2F
:100220002F6E060E306E150E316E000E326EA3DF8D
:100230000D0E0B6EAF0E0C6EB60E0D6E0D2EFED7A4
:100240000C2EFCD70B2EFAD70000020E2F6E010EDB
:10025000306E7C0EF66E020EF76E000EF86E1E0EFD
:10026000E16E000EE26E110E006E010E016E30DFC7
:0C0270001E0E316E000E326E7EDFFFD7D6
:10027C0050494320206573206C61206F6E646121AE
:01028C000071
:020000040030CA
:0D000100011E1EFF8381FF0FC00FE00F40A6
:00000001FF
