:020000000629CF
:0E000600533083120313FD00FD0B0728080082
:10001400243083120313FC00B530FD00FD0B1028BF
:0A002400FC0B10280000000008008B
:0C002E00000000000000000000000800BE
:10003A0083120313DE1B23288511242885155E1BD2
:10004A002828051129280515DE1A2D2885102E289D
:10005A0085145E1A322805103328051456183728D5
:10006A00081638280812881617208812DE193F2821
:10007A008511402885155E1944280511452805155E
:10008A00DE18492885104A2885145E184E2805105E
:10009A004F2805145618532808165428081288168B
:1000AA0017208812561C5B280A205C2803200800A7
:0E00BA008312031355088A00540882000800C0
:1000C8008312031356105D08DE001D205614080025
:1000D800831603138812081205108510051185115F
:1000E80083128812081285110511851005100A203F
:1000F8000A200A20851405148816172088120A2059
:100108008816172088120A208816172088120A20B5
:1001180005108816172088120A20881617208812BA
:10012800851085158816172088120A208511051450
:1001380088161720881205108816172088120A209A
:1001480088161720881205148816172088120A2086
:1001580005108816172088128515051585140514AD
:0C0168008816172088120A205614080080
:10017400CC28803083120313D900DF28C030D90083
:10018400DF289430D900DF28D430D900DF2880302C
:10019400D900DF28831203135908013A0319BB2835
:1001A4005908023A0319C0285908033A0319C32805
:1001B4005908043A0319C628C9285A03F0005908F3
:1001C400F0077008D9007008DE001D205610DC010D
:1001D4005C085B07840000080319F8285C085B07C7
:1001E40084000008DD006420DC0AEA2856140800B4
:1001F4005D208A110A128000840AD40A0319D50AE0
:08020400F003031DFA280800B5
:10020C00B2218316031386018801850106309F04F1
:10021C008312880185016C206230FC006530FD0082
:10022C00FD0B1629FC0B1629000000000130DE0026
:10023C001D200C30DE001D200130D9000630DA0004
:10024C002030DB00BA200230D9000130DA0028302F
:10025C00DB00BA200D30FB00AF30FC00B630FD00E7
:10026C00FD0B3629FC0B3629FB0B36290000D70178
:10027C00D80180305806F00080307002031D4829E8
:10028C000A305702031861295708393E84000008C8
:10029C0086000330FB008A30FC005530FD00FD0B5E
:1002AC005529FC0B5529FB0B552900000000D70ADA
:1002BC000319D80A3F293E3086000230D90001309C
:1002CC00DA004330DB00BA20CB30FB00EC30FC0012
:1002DC008430FD00FD0B7029FC0B7029FB0B702981
:0602EC0000003029782912
:1003640020308400343083120313F0007E30D40034
:080374000130D500FA20080059
:1002FC004C346334643434346234693474340034CC
:10030C00503449344334203420346534733420342D
:10031C006C34613420346F346E3464346134213481
:02032C0000349B
:10032E003F3406345B344F3466346D347D340734D9
:04033E007F3467346D
:100342005634493445344A344F34203450344934D5
:100352004334313436344634383437343734413424
:02036200003465
:02400E00012F80
:00000001FF
