:020000000629CF
:0E000600533083120313FD00FD0B0728080082
:10001400243083120313FC00B530FD00FD0B1028BF
:0A002400FC0B10280000000008008B
:0C002E00000000000000000000000800BE
:10003A0083120313DE1B23288511242885155E1BD2
:10004A002828051129280515DE1A2D2885102E289D
:10005A0085145E1A322805103328051445183728E6
:10006A00081638280812881617208812DE193F2821
:10007A008511402885155E1944280511452805155E
:10008A00DE18492885104A2885145E184E2805105E
:10009A004F2805144518532808165428081288169C
:1000AA0017208812451C5B280A205C2803200800B8
:0E00BA008312031344088A00430882000800E2
:1000C8008312031345105D08DE001D204514080047
:1000D800831603138812081205108510051185115F
:1000E80083128812081285110511851005100A203F
:1000F8000A200A20851405148816172088120A2059
:100108008816172088120A208816172088120A20B5
:1001180005108816172088120A20881617208812BA
:10012800851085158816172088120A208511051450
:1001380088161720881205108816172088120A209A
:1001480088161720881205148816172088120A2086
:1001580005108816172088128515051585140514AD
:0C0168008816172088120A204514080091
:10017400CC28803083120313D900DF28C030D90083
:10018400DF289430D900DF28D430D900DF2880302C
:10019400D900DF28831203135908013A0319BB2835
:1001A4005908023A0319C0285908033A0319C32805
:1001B4005908043A0319C628C9285A03F0005908F3
:1001C400F0077008D9007008DE001D204510DC011E
:1001D4005C085B07840000080319F8285C085B07C7
:1001E40084000008DD006420DC0AEA2845140800C5
:1001F4005D208A110A128000840AC30A0319C40A02
:08020400F003031DFA280800B5
:10020C00C2218316031386018801850106309F04E1
:10021C008312880185016C206230FC006530FD0082
:10022C00FD0B1629FC0B1629000000000130DE0026
:10023C001D200C30DE001D200130D9000630DA0004
:10024C002030DB00BA200230D9000130DA00503007
:10025C00C8004930C9004330CA002030CB002030E0
:10026C00CC006530CD007330CE002030CF006C3028
:10027C00D0006130D1002030D2006F30D3006E300E
:10028C00D4006430D5006130D6002130D700D801BD
:10029C004830DB00BA200D30FB00AF30FC00B6302C
:1002AC00FD00FD0B5729FC0B5729FB0B57290000B0
:1002BC00C601C70180304706F00080307002031D74
:1002CC0069290A304602031882294608283E840010
:1002DC00000886000330FB008A30FC005530FD001E
:1002EC00FD0B7629FC0B7629FB0B76290000000010
:1002FC00C60A0319C70A60293E3086000230D900AD
:10030C000130DA003230DB00BA20CB30FB00EC30AD
:10031C00FC008430FD00FD0B9129FC0B9129FB0B9B
:08032C009129000051299929D3
:1003840020308400233083120313F0009F30C30015
:080394000130C400FA2008004A
:10033E004C34633464343434623469347434003489
:10034E003F3406345B344F3466346D347D340734B9
:04035E007F3467344D
:100362005634493445344A344F34203450344934B5
:100372004334313436344634383437343734413404
:02038200003445
:02400E00012F80
:00000001FF
