:02000000CB2C07
:0400060000000800EE
:10000A00103083120313FD00FD0B092800000800BD
:10001A00083083120313FC002330FD00FD0B132864
:06002A00FC0B1328080086
:0E003000F201F101F001F801F30100300800C7
:10003E0083120313F801F9011030FC00710DF80D55
:10004E00F90D7408F8027508031C750FF9020318F0
:10005E0037287408F80775080318750FF907031089
:0A006E00F00DF10DFC0B2528080031
:1000780083120313E41B4228881243288816641B42
:100088004728081248280816E41A4C2888114D28D1
:100098008815641A51280811522808153A18562844
:1000A800081457280810881403208810E4195E28BB
:1000B80088125F28881664196328081264280816AD
:1000C800E418682888116928881564186D280811AB
:1000D8006E2808153A18722808147328081088140E
:1000E800032088103A1C7A280D207B280520080058
:1000F8007B15FB1F86280130F300F201F101F001A6
:08010800FA0DF20CFF300800B3
:08011000FA1FF2130030080091
:1001180083120313FB01FA01F9018030F800F10C96
:10012800F00C031CA0287408F90775080318750F4C
:10013800FA070318FB0A0310F01FA8287408FA0727
:1001480075080318750FFB07FB0CFA0CF90CF80C73
:10015800031C93287B08F3007A08F2007908F10061
:060168007808F000080019
:06016E00FB15FF30080044
:100174007B14FB1FC528F201FA1FFF30F200F100C7
:0A018400F000FA0DF20CFF30080045
:10018E00FB14FB1FD128FF30F300F200F100F0004A
:08019E00FA0DF20CFF3008001D
:0E01A600073083120313FD00FD0BD72808005D
:1001B40083120313E201053062020318E82862087F
:1001C4006107840020308000E20ADD2862086107AC
:1001D40084008001E20362086107E3000A30F4004E
:1001E400F5015F08F0006008F1001F207808F000B6
:1001F4007908F1003030F00763088400700880004B
:100204000A30F400F5015F08F0006008F1001F20D7
:100214007008DF007108E00000307106031D142926
:1002240000307006031D17291929E203ED28080080
:10023400A0017208031D2F297108F2007008F10053
:10024400F001A0157208031D2F297108F200F101B5
:10025400A0112016720803193D292008F302031D7A
:10026400031C41290310F21B4529F00DF10DF20D79
:10027400F30B352941290130FC00182048290230AC
:0E028400FC007C2048290430FC008820080083
:0E0292008312031325088A0024088200080046
:1002A000831203133A105F08E4003C203A1408005C
:0A02B00083120313061186150800DF
:1002BA0083120313DB01DC015608DD005708DE0058
:1002CA0080305706F00080307002031D6E2900301E
:1002DA00560203187C290130DB000030DC00560886
:1002EA00003CDD005708031C013EDE01DE025D080A
:1002FA00DF005E08E0005808E100DA200630D90085
:10030A000030DA005A08003C031D8D295908003CC8
:10031A000318A82959085807F20001305902F000B9
:10032A000030031C013E5A02F1007008580784008D
:10033A000008F00072088400700880000130D902B9
:10034A00031CDA03872958088400203080005B08E0
:10035A005C040319C629D901DA015908580784002F
:10036A000008203A031DBD29D90A0319DA0AB2295D
:10037A000130D902031CDA035908580784002D30CA
:04038A0080000800E7
:10038E00831203137408003A031DE2297508003A1C
:10039E00031DE2297608003A031DE2297708003A88
:1003AE00031DE229FF30F000FF30F1007F30F20034
:1003BE00FF30F3007D2A8312031377080319712A85
:1003CE0073080319742A720876068039FA00F21738
:1003DE00F617A0017208F8007108FC007008FD0005
:1003EE007408FD027508031C750FFC027608031CC9
:1003FE00760FF802F801FC01FD01031C0D2A031013
:10040E00F20CF10CF00CF80C0130A0007708F3029E
:10041E00031C172A7E302007F3070318772A1C2A9D
:10042E007E302007F307031C7A2A1830FA07FD0DD9
:10043E00FC0DF80DF00DF10DF20DA00D7408F0028B
:10044E007508031C750FF1027608031C760FF20275
:10045E00760DA004201C352A7D14402A7408F0075E
:10046E0075080318750FF10776080318760AF20758
:10047E007D10FA031F307A05031D1E2A7B1B7D1C7F
:10048E00672A0310F00DF10DF20DA00D7408F002A5
:10049E007508031C750FF1027608031C760FF20225
:1004AE00760D20040139FD070318FC0A0319F80A1A
:1004BE00031D672AF80CFC0CFD0CF30A0319772AAE
:1004CE00FA1FF8137808F2007C08F1007D08F0009E
:1004DE0000307C2A0130B7207C2A023018207C2A7A
:0E04EE000430C7207C2A08307C200000080063
:1004FC00FF3083120313BB00FF30BC00FF30BD0084
:10050C00FF309F01C0309F042309F0007008831650
:0C051C009F051F179F1783121F14080073
:0A0528008312031306108614080066
:10053200831203137008F8007108F000F101F20150
:10054200F301FB01FC019630F300FA017008F1009F
:0C0552007808F000F801F2011A210800FE
:10055E00831203139F01C0309F042309F00070081B
:10056E0083169F051F179F1783125608F000F00D74
:10057E007010F00D7010F00D701070089F041F14A5
:10058E00D3201F151F1DCD2A0000C92A1F101E08BB
:10059E00F100F00183161E08F0040030F10408008B
:0C05AE00831203139B011D129D12080014
:1005BA0083120313FB017308031D77080319342BF5
:1005CA0072087606FA007708F3077E30031CF12AD0
:1005DA00F3020318372BF42AF302031C3A2B72088E
:1005EA00F8007108FC007008FD00F817F6170310F0
:1005FA00F201F101F0011830A0007D1C0E2B7408E5
:10060A00F00775080318750FF10776080318760FB7
:10061A00F207F20CF10CF00CF80CFC0CFD0C0310B8
:10062A00A00B022BF21B1E2BF80DF00DF10DF20D93
:10063A00F3037B1B701C302BF81F302BF00A0319B5
:10064A00F10A0319F20A031D302BF20CF10CF00C1B
:10065A00F30A0319372BFA1FF21300303C2B01302F
:10066A0018203C2B0230C7203C2B04307C20000091
:02067A00080076
:10067C00502B803083120313D600632BC030D6006E
:10068C00632B9430D600632BD430D600632B803090
:10069C00D600632B831203135608013A03193F2B20
:1006AC005608023A0319442B5608033A0319472BF0
:1006BC005608043A03194A2B4D2B5703F0005608E1
:1006CC00F0077008D6007008E4003C203A10D901FD
:1006DC00590858078400000803197C2B590858073F
:1006EC0084000008DF005021D90A6E2B3A14080050
:1006FC008316031388100810081188110812881229
:10070C0083128810081088120812881108110D2005
:10071C000D200D20881508158814032088100D2035
:10072C008814032088100D208814032088100D20B5
:10073C0008118814032088100D20881403208810B9
:10074C00881188168814032088100D20881208152B
:10075C0088140320881008118814032088100D2099
:10076C0088140320881008158814032088100D2085
:10077C000811881403208810881608168815081587
:0C078C008814032088100D203A14080087
:10079800831603130711831212150C3097040800EF
:0C07A8008312031395011712971208002A
:1007B40083120313FB01FC01FA0173080319192CBA
:1007C400F2178E30F302F31BEA2B0319EA2B1C2CCD
:1007D400F309F30A08307302031CFF2BF300F10D35
:1007E4007208F100F20108307302031CFF2BF10DB3
:1007F400F1017308031D0310072C73080319072C58
:100804000310F20CF10CF30B022C7B1B711C112C4A
:10081400031C112CF10A0319F20AF21B282CFA1FEB
:100824002B2CF209F109F10A0319F20A2B2CF2011B
:10083400F1012B2C7B14FB1F2E2CF201FA1F2E2C02
:10084400FF30F200F100FA0DF20C2E2C0130FC0006
:10085400302C0030FC00302CFF30FC00FC08031965
:0E086400342CBA207108F0007208F100080070
:0A0872008312031306158611080017
:10087C00831603131208013EF000F1010318F10A6C
:10088C0083125608F400F5018C200630F200700833
:10089C00F4007108F50072080319592CF50CF40CCE
:1008AC00F513FF3E522C0430F1007408F00071086F
:1008BC000319642CF00D7010FF3E5E2C3030700567
:1008CC00F3007408F0007508F100F10CF00CF11352
:1008DC00F10CF00CF11370089B000F309D057308A0
:0408EC009D0408005F
:0A08F000831203130614861008009B
:1008FA00831603131208013EF000F1010318F10AEE
:10090A0083125608F400F5018C200630F2007008B4
:10091A00F4007108F50072080319982CF50CF40C10
:10092A00F513FF3E912C0430F1007408F0007108B1
:10093A000319A32CF00D7010FF3E9D2C303070056A
:10094A00F3007408F0007508F100F10CF00CF113D3
:10095A00F10CF00CF113700895000F30970573082D
:04096A0097040800E6
:10096E0049218A110A128000840AA40A0319A50AD1
:08097E00F003031DB72C080073
:10098600831603138710831212150C309D0408007A
:1009960004260E30831603139F00FF308500860160
:1009A6000616861606178617831287100711121465
:1009B6009214FF3083169200D42312149214FF303F
:1009C60083169200D7222830D6007D242108D6002F
:1009D6003E24CC23C3247E227E230130E4003C2027
:1009E6000C30E4003C200130D6000130D7005630F0
:1009F600BE003130BF003D30C000C1013E30D800DE
:100A06003E230230D6000130D7005630C2003230C5
:100A1600C3003D30C400C5014230D8003E2301303A
:100A2600D6000C30D7004730C6003130C7003D3005
:100A3600C800C9014630D8003E230230D6000C302B
:100A4600D7004730CA003230CB003D30CC00CD0154
:100A56004A30D8003E23831681138312D601AF2273
:100A660070088312B8007108B90099220030F400AA
:100A76000030F5007F30F6008630F700DD220030CA
:100A8600F400C030F5007F30F6008830F700C7214B
:100A9600DA237008A6007108A7007008D6007D2426
:100AA6002608D6002708D7002830D8005D21013057
:100AB600D6000430D7002830D8003E23061B8E2DE2
:100AC6000A302107F10022080318013EF2007108DE
:100AD600A1007208A20080307206F0008030700219
:100AE600031D772DFF307102031C7C2DFF30A10002
:100AF600A2012108D6003E240230FB004530FC004E
:100B0600A930FD00FD0B852DFC0B852DFB0B852DDE
:100B160000000000BA2D861BBA2D0A302102F10012
:100B26000030031C013E2202F2007108A100720887
:100B3600A2008030F000803072067002031DA52DE1
:100B46007108003C031CA92DA101A2012108D600B1
:100B56003E240230FB004530FC00A930FD00FD0BB1
:100B6600B22DFC0BB22DFB0BB22D000000002108AC
:100B7600D6002208D7002830D8005D210230D600E2
:100B86000430D7002830D8003E23061AD62D782404
:100B96000130D6000F30D7004430CE00CF014E30A2
:100BA600D8003E23E12D94220130D6000F30D70025
:100BB6004930D000D1015030D8003E23861AEF2D9F
:100BC60039240230D6000F30D7004430D200D3018A
:100BD6005230D8003E23FA2D58210230D6000F306D
:100BE600D7004930D400D5015430D8003E23302DEB
:020BF600FB2DD5
:100C080021308400033083120313F0000130A40064
:080C18000630A500B724080016
:040C02000034003486
:020C06000F34A9
:02400E00412F40
:00000001FF
