:020000000329D2
:0E000600213083120313FD00FD0B07280800B4
:100014000F3083120313FC004730FD00FD0B102842
:0A002400FC0B10280000000008008B
:06002E00000000000800C4
:1000340083120313C21B2028871121288715421B12
:100044002528071126280715C21A2A2887102B28C5
:100054008714421A2F280710302807142918342827
:10006400071635280712871617208712C2193C284D
:1000740087113D2887154219412807114228071581
:10008400C218462887104728871442184B2807109F
:100094004C280714291850280716512807128716C8
:1000A40017208712291C58280A20592803200800E1
:0E00B400831203132B088A002A08820008001A
:1000C2008312031329104108C2001A2029140800C0
:1000D200831603138712071207108710071187115F
:1000E20083128712071287110711871007100A203F
:1000F2000A200A20871407148716172087120A205D
:100102008716172087120A208716172087120A20BF
:1001120007108716172087120A20871617208712C2
:10012200871087158716172087120A208711071450
:1001320087161720871207108716172087120A20A2
:1001420087161720871207148716172087120A208E
:1001520007108716172087128715071587140714AB
:0C0162008716172087120A2029140800B5
:10016E00C928803083120313BD00DC28C030BD00C7
:10017E00DC289430BD00DC28D430BD00DC28803073
:10018E00BD00DC28831203133D08013A0319B82879
:10019E003D08023A0319BD283D08033A0319C02849
:1001AE003D08043A0319C328C6283E03F0003D0853
:1001BE00F0077008BD007008C2001A202910C00197
:1001CE0040083F07840000080319F52840083F0740
:1001DE0084000008C1006120C00AE7282914080025
:1001EE005A208A110A128000840AAA0A0319AB0A3D
:0801FE00F003031DF7280800BF
:100206004C3083120313A0006330A1006430A200B7
:100216003430A3006230A4006930A5007430A60013
:100226003A30A700A801FF30831685008701063003
:100236009F048312870169202730FC00F530FD00FA
:10024600FD0B2329FC0B23290130C2001A200C3098
:10025600C2001A200130BD000130BE002030BF00B0
:10026600B7200230BD000130BE005030AC0049302E
:10027600AD004330AE002030AF002030B000653016
:10028600B1007330B2002030B3006C30B40061307E
:10029600B5002030B6006F30B7006E30B80064305D
:1002A600B9006130BA002130BB00BC012C30BF0060
:1002B600B7200130BD000930BE003130BF00B72085
:0402C6005C29642922
:02400E00412F40
:00000001FF
