:02000000072BCC
:0E000600213083120313FD00FD0B07280800B4
:100014000F3083120313FC004730FD00FD0B102842
:0A002400FC0B10280000000008008B
:06002E00000000000800C4
:1000340083120313F801F9011030FC00710DF80D5F
:10004400F90D7408F8027508031C750FF9020318FA
:1000540032287408F80775080318750FF907031098
:0A006400F00DF10DFC0B2028080040
:10006E0083160313B01B3E28831286114028831279
:10007E0086158316301B46288312061148288312D4
:10008E0006158316B01A4E28831286105028831236
:10009E0086148316301A5628831206105828831297
:1000AE00061433185C2806165D28061286161720CD
:1000BE0086128316B0196628831286116828831259
:1000CE008615831630196E28831206117028831236
:1000DE0006158316B0187628831286107828831298
:1000EE008614831630187E288312061080288312F9
:1000FE00061433188428061685280612861617202D
:0E010E008612331C8C280A208D28032008003E
:10011C00033083120313FC009730FD00FD0B942871
:0A012C00FC0B9428000000000800FE
:0E013600831203132D088A002C088200080093
:1001440083120313331083162B08B00037203314A3
:020154000800A1
:1001560083160313AE0105302E020318B9282E08A4
:100166002D07840020308000AE0AAE282E082D0709
:1001760084008001AE032E082D07AF000A30F4007C
:10018600F5012B08F0002C08F1001A207808F00081
:100196007908F1003030F00783162F0884007008C4
:1001A60080000A30F400F5012B08F0002C08F1005D
:1001B6001A2070088316AB007108AC000030710677
:1001C600031DE72800307006031DEA28EC28AE035D
:0401D600BE28080037
:1001DA0083120313FB01FA01F9018030F800F10CD4
:1001EA00F00C031C01297408F90775080318750F28
:1001FA00FA070318FB0A0310F01F09297408FA0703
:10020A0075080318750FFB07FB0CFA0CF90CF80CB0
:10021A00031CF4287B08F3007A08F2007908F1003D
:06022A007808F000080056
:10023000063083120313FD00FD0B1C29000008008B
:1002400083160313AB01AD01AE011030AF000430D3
:100250002E0203185529F030831287008030F000F9
:100260007008073E840083162F09F0007008800094
:10027000172017200F3083120705F000700883162F
:10028000AC00700803194F292D08AB002C08031986
:100290004D29AC0CAC13AB0A46290430AE00AF0DAF
:1002A0002F100430AD07AE0A27292B08F0000800F4
:1002B00083160313A301A401A501A60123082207A5
:1002C00084000008003A031984292508F000260854
:1002D000F1000A30F4000030F500ED208316230809
:1002E0002207840030300002F200F301031CF30304
:1002F00072087007A50071080318013E7307A60075
:10030000A30A0319A40A5E292508F0002608F100B3
:020310000800E3
:1003120083160313A401A50180302506F000803066
:1003220023067002031D97292208240203189F291D
:0E0332008E208316A40A0319A50A8D2908003F
:1003400020217008A2000F3083120705F000031966
:0E035000AB291821A32983162208F00008000B
:10035E00C129803083160313A200D429C030A20015
:10036E00D4299430A200D429D430A200D4298030CC
:10037E00A200D429831603132208013A0319B029C7
:10038E002208023A0319B5292208033A0319B8299B
:10039E002208043A0319BB29BE292303F0002208C0
:1003AE00F0077008A2008312331470088316B00091
:1003BE003720331083162408B0003720331408007A
:1003CE00831603132208393C031CF4293030220211
:0E03DE00031CF4290130F000F529F00108009D
:1003EC009B208A110A128000840AAC0A0319AD0AF8
:0803FC00F003031DF6290800BF
:10040400803083120313F0007008073E8400FF302D
:04041400800008005C
:100418001E2A803083160313A200312AC030A2009E
:10042800312A9430A200312AD430A200312A8030F7
:10043800A200312A831603132208013A03190D2A50
:100448002208023A0319122A2208033A0319152A24
:100458002208043A0319182A1B2A2303F000220849
:10046800F0077008A2007008B00037203310831618
:10047800A501250824078400000803194C2A25082B
:10048800240784000008AB00A2208316A50A3D2A91
:060498008312331408007A
:10049E0083160313A701A8012208A9002308AA00A6
:1004AE0080302306F00080307002031D602A003079
:1004BE00220203186E2A0130A7000030A80022087D
:1004CE00003CA9002308031C013EAA01AA02290828
:1004DE00AB002A08AC002408AD00AB200630A50006
:1004EE000030A6002608003C031D7F2A2508003C8C
:1004FE0003189A2A25082407F20001302502F0007D
:10050E000030031C013E2602F1007008240784000F
:10051E000008F00072088400700880000130A50207
:10052E00031CA603792A24088400203080002708A3
:10053E0028040319B82AA501A6012508240784005A
:10054E000008203A031DAF2AA50A0319A60AA42AF9
:10055E000130A502031CA6032508240784002D30B4
:04056E008000080001
:1005720083160313861206120610861006118611C0
:1005820083128612061286110611861006100A20A0
:100592000A200A20861406148616172086120A20BC
:1005A2008616172086120A208616172086120A201F
:1005B20006108616172086120A2086161720861223
:1005C200861086158616172086120A2086110614B2
:1005D20086161720861206108616172086120A2003
:1005E20086161720861206148616172086120A20EF
:1005F200061086161720861286150615861406140E
:0C0602008616172086120A203314080008
:10060E006825203083120313EF008316061386131A
:10061E0009140F309F048312061386130222B92287
:10062E002730FC00F530FD00FD0B1B2BFC0B1B2BAC
:10063E0001308316B00037200C308316B0003720FF
:10064E0001308316A2000130A3002330A4000C2237
:10065E0002308316A2000130A30050308312C8006E
:10066E004930C9004330CA002030CB002030CC00C6
:10067E006530CD007330CE002030CF006C30D0000E
:10068E006130D1002030D2006F30D3006E30D400F4
:10069E006430D5006130D6002130D700D801483003
:1006AE008316A4000C2230308316A000A0217008FF
:1006BE00A1002008A200E7217008031D682B30302E
:1006CE00A0000130A2001030A3002008A400AF212A
:1006DE008316A00A83120918B02B02308316A200CB
:1006EE000130A30020308312D9002030DA002030F0
:1006FE00DB002030DC002030DD002030DE0020303A
:10070E00DF002030E0002030E1002030E200203019
:10071E00E3002030E4002030E5002030E6002030F9
:10072E00E7002030E800E90159308316A4000C22BE
:10073E0021088316A200831222088316A3003430E8
:10074E00A4004F220230A2000130A3003430A400D6
:10075E000C22061721088316A20083122208831684
:10076E00A30089218312061321088316A200831287
:10077E0022088316A3008921210803195D2B8312F9
:10078E0086170630FB001330FC00AD30FD00FD0B6C
:10079E00CE2BFC0BCE2BFB0BCE2B000000008613BA
:1007AE000630FB001330FC00AD30FD00FD0BDD2BE1
:1007BE00FC0BDD2BFB0BDD2B00000000262C831227
:1007CE003730EF00672C83123830EF00672C83121E
:1007DE003930EF00672C83122530EF00672C83121F
:1007EE003430EF00672C83123530EF00672C831204
:1007FE003630EF00672C83122A30EF00672C8312FD
:10080E003130EF00672C83123230EF00672C8312E9
:10081E003330EF00672C83122D30EF00672C8312DC
:10082E004330EF00672C83123030EF00672C8312B9
:10083E003D30EF00672C83122B30EF00672C8316B0
:10084E002108013A0319E62B2108023A0319EA2B73
:10085E002108033A0319EE2B2108043A0319F22B4F
:10086E002108053A0319F62B2108063A0319FA2B2B
:10087E002108073A0319FE2B2108083A0319022C06
:10088E002108093A0319062C21080A3A03190A2CE1
:10089E0021080B3A03190E2C21080C3A0319122CBD
:1008AE0021080D3A0319162C21080E3A03191A2C99
:1008BE0021080F3A03191E2C2108103A0319222C75
:1008CE0083126F083D3A031D792C2E08003A031946
:1008DE00792C2E308316A200582170088312A100A5
:1008EE007108A2006F088316A200E7217008031D8D
:1008FE00832C04308312A000182D83126F08AE00D3
:10090E00AF0101308316A2000B30A30083126F08D3
:10091E008316A400AF210130A0000530FB000F307C
:10092E00FC00F130FD00FD0B9A2CFC0B9A2CFB0BFE
:10093E009A2C2D2D6F08AF00B00101308316A20046
:10094E000C30A30083126F088316A400AF2102306F
:10095E00A0000530FB000F30FC00F130FD00FD0B58
:10096E00B62CFC0BB62CFB0BB62C2D2D6F08B00045
:10097E00B10101308316A2000D30A30083126F085F
:10098E008316A400AF210330A0000530FB000F300A
:10099E00FC00F130FD00FD0BD22CFC0BD22CFB0B1E
:1009AE00D22C2D2D6F08B100B20101308316A2009A
:1009BE000E30A30083126F088316A400AF210430FB
:1009CE00A0000530FB000F30FC00F130FD00FD0BE8
:1009DE00EE2CFC0BEE2CFB0BEE2C2D2D013083168A
:1009EE00A2000B30A30020308312EA002030EB006F
:1009FE002030EC002030ED00EE016A308316A400AA
:100A0E000C22AE010730FB001730FC006A30FD00EF
:100A1E00FD0B0F2DFC0B0F2DFB0B0F2D0000A0015E
:100A2E002D2D83122008003A0319842C2008013A38
:100A3E000319A12C2008023A0319BD2C2008033AF1
:100A4E000319D92C2008043A0319F52C5D2B2E2DF1
:100AD000203084000C3083120313F0005C30AC0033
:080AE0000530AD00F62108000D
:100A680050344934433420342034653473342034CA
:100A78006C34613420346F346E346434613421341E
:020A8800003438
:100A8A0020342034203420342034203420342034BC
:100A9A0020342034203420342034203420342034AC
:020AAA00003416
:0A0AAC0020342034203420340034BC
:020AB6002034EA
:020AB800003408
:040ABA00F4340134DB
:100ABE004C346334643434346234693474343A34C8
:020ACE000034F2
:02400E00412F40
:00000001FF
