:02000000822B51
:0E000600213083120313FD00FD0B07280800B4
:100014000F3083120313FC004730FD00FD0B102842
:0A002400FC0B10280000000008008B
:06002E00000000000800C4
:10003400063083120313FD00FD0B1E280000080088
:1000440083120313F801F9011030FC00710DF80D4F
:10005400F90D7408F8027508031C750FF9020318EA
:100064003A287408F80775080318750FF907031080
:0A007400F00DF10DFC0B2828080028
:10007E0083160313AF01B101B2011030B300043087
:10008E00320203187428F030831287008030F0009B
:10009E007008073E840083163309F0007008800054
:1000AE00172017200F3083120705F00070088316F3
:1000BE00B000700803196E283108AF00300803191C
:1000CE006C28B00CB013AF0A65280430B200B30D23
:1000DE0033100430B107B20A46282F08F00008008A
:1000EE0083160313AF1B7E2883128611802883127A
:1000FE00861583162F1B86288312061188288312D5
:10010E0006158316AF1A8E28831286109028831236
:10011E00861483162F1A9628831206109828831297
:10012E00061433189C2806169D28061286161720CC
:10013E0086128316AF19A62883128611A828831259
:10014E00861583162F19AE2883120611B028831236
:10015E0006158316AF18B62883128610B828831298
:10016E00861483162F18BE2883120610C0288312F9
:10017E0006143318C4280616C5280612861617202C
:0E018E008612331CCC280A20CD28032008003E
:0E019C00831203132D088A002C08820008002D
:1001AA0083120313FB01FA01F9018030F800F10C04
:1001BA00F00C031CE9287408F90775080318750F71
:1001CA00FA070318FB0A0310F01FF1287408FA074C
:1001DA0075080318750FFB07FB0CFA0CF90CF80CE1
:1001EA00031CDC287B08F3007A08F2007908F10086
:0601FA007808F000080087
:1002000083160313AD0105302D0203180E292D08A6
:100210002C07840020308000AD0A03292D082C070C
:1002200084008001AD032D082C07AE000A30F400D5
:10023000F5012A08F0002B08F10022207808F000D0
:100240007908F1003030F00783162E08840070081A
:1002500080000A30F400F5012A08F0002B08F100B4
:10026000222070088316AA007108AB0000307106C6
:10027000031D3C2900307006031D3F294129AD03B1
:040280001329080036
:1002840083120313331083162A08AF007720331424
:02029400080060
:100296003F207008AA000F3083120705F0000319EB
:0E02A60056291A204E2983162A08F000080057
:1002B400033083120313FC009730FD00FD0B60290B
:0A02C400FC0B602900000000080098
:1002CE0083160313A201A301A401A501220821078D
:1002DE0084000008003A031993292408F000250829
:1002EE00F1000A30F4000030F500D5208316220804
:1002FE002107840030300002F200F301031CF303E7
:10030E0072087007A40071080318013E7307A50058
:10031E00A20A0319A30A6D292408F0002508F1008A
:02032E000800C5
:1003300083160313A301A40180302406F00080304B
:1003400022067002031DA629210823020318AE29E4
:0E0350005A218316A30A0319A40A9C29080047
:10035E004B217008A100E6293730A200272A383039
:10036E00A200272A3930A200272A2530A200272AE8
:10037E003430A200272A3530A200272A3630A200B8
:10038E00272A2A30A200272A3130A200272A32300B
:10039E00A200272A3330A200272A2D30A200272AB6
:1003AE004330A200272A3030A200272A3D30A20077
:1003BE00272A2B30A200272A2108A200272A21084B
:1003CE00013A0319B3292108023A0319B629210863
:1003DE00033A0319B9292108043A0319BC29210843
:1003EE00053A0319BF292108063A0319C229210823
:1003FE00073A0319C5292108083A0319C829210803
:10040E00093A0319CB2921080A3A0319CE292108E2
:10041E000B3A0319D12921080C3A0319D4292108C2
:10042E000D3A0319D72921080E3A0319DA292108A2
:10043E000F3A0319DD292108103A0319E029E3299F
:06044E002208F000080086
:100454003C2A803083160313A1004F2AC030A10028
:100464004F2A9430A1004F2AD430A1004F2A803063
:10047400A1004F2A831603132108013A03192B2ADA
:100484002108023A0319302A2108033A0319332AAE
:100494002108043A0319362A392A2203F0002108D4
:1004A400F0077008A1008312331470088316AF009C
:1004B4007720331083162308AF0077203314080005
:1004C400831603132108393C031C6F2A30302102A0
:0E04D400031C6F2A0130F000702AF0010800AE
:1004E200CE208A110A128000840AAC0A0319AD0ACE
:0804F200F003031D712A08004C
:1004FA00803083120313F0007008073E8400FF3037
:04050A008000080065
:10050E00992A803083160313A100AC2AC030A100B3
:10051E00AC2A9430A100AC2AD430A100AC2A803091
:10052E00A100AC2A831603132108013A0319882A65
:10053E002108023A03198D2A2108033A0319902A39
:10054E002108043A0319932A962A2203F00021085F
:10055E00F0077008A1007008AF00772033108316E3
:10056E00A40124082307840000080319C72A2408BD
:10057E00230784000008AA0042218316A40AB82A81
:06058E0083123314080083
:1005940083160313A601A7012108A8002208A900B5
:1005A40080302206F00080307002031DDB2A003008
:1005B40021020318E92A0130A6000030A70021080F
:1005C400003CA8002208031C013EA901A902280836
:1005D400AA002908AB002308AC0000210630A400BF
:1005E4000030A5002508003C031DFA2A2408003C1D
:1005F4000318152B24082307F20001302402F0000D
:100604000030031C013E2502F1007008230784001A
:100614000008F00072088400700880000130A40211
:10062400031CA503F42A2308840020308000260834
:1006340027040319332BA401A501240823078400EC
:100644000008203A031D2A2BA40A0319A50A1F2B0C
:100654000130A402031CA5032408230784002D30C1
:04066400800008000A
:1006680083160313861206120610861006118611C9
:1006780083128612061286110611861006100A20A9
:100688000A200A20861406148616172086120A20C5
:100698008616172086120A208616172086120A2028
:1006A80006108616172086120A208616172086122C
:1006B800861086158616172086120A2086110614BB
:1006C80086161720861206108616172086120A200C
:1006D80086161720861206148616172086120A20F8
:1006E8000610861617208612861506158614061417
:0C06F8008616172086120A203314080012
:100704006825831603130613861309140F309F04F8
:100714008312061386137D2234232730FC00F53020
:10072400FD00FD0B932BFC0B932B01308316AF00C4
:1007340077200C308316AF00772001308316A10098
:100744000130A2002330A300872202308316A100C7
:100754000130A20050308312C8004930C900433030
:10076400CA002030CB002030CC006530CD0073307F
:10077400CE002030CF006C30D0006130D10020306A
:10078400D2006F30D3006E30D4006430D5006130B5
:10079400D6002130D700D80148308316A300872221
:1007A4003030EF00AF217008A00083126F08831669
:1007B400A10062227008031DE22B30308312EF0087
:1007C40001308316A1000F30A2002008A3002A22C2
:1007D40001308316A1001030A20083126F08831623
:1007E400A3002A22EF0A0918332C02308316A10031
:1007F4000130A20020308312D9002030DA002030EA
:10080400DB002030DC002030DD002030DE00203032
:10081400DF002030E0002030E1002030E200203012
:10082400E3002030E4002030E5002030E6002030F2
:10083400E7002030E800E90159308316A30087223D
:1008440021088316A100831222088316A2003430E3
:10085400A300CA220230A1000130A2003430A30058
:100864008722061721088316A10083122208831603
:10087400A20098218312061321088316A100831273
:1008840022088316A200982120080319D42B83126E
:1008940086170630FB001330FC00AD30FD00FD0B65
:1008A400512CFC0B512CFB0B512C00000000861327
:1008B4000630FB001330FC00AD30FD00FD0B602C56
:1008C400FC0B602CFB0B602C00000000831620083E
:1008D4003D3A031D7B2C83122E08003A03197B2C0E
:1008E4002E308316A100672170088312A1007108BD
:1008F400A20083162008A10062227008031D852C23
:1009040004308312A000192D831620088312AE0030
:10091400AF0101308316A1000B30A2002008A30010
:100924002A220130A0000530FB000F30FC00F1301A
:10093400FD00FD0B9B2CFC0B9B2CFB0B9B2C2E2DF1
:10094400831620088312AF00B00101308316A10082
:100954000C30A2002008A3002A220230A000053097
:10096400FB000F30FC00F130FD00FD0BB72CFC0B3D
:10097400B72CFB0BB72C2E2D831620088312B00046
:10098400B10101308316A1000D30A2002008A3009C
:100994002A220330A0000530FB000F30FC00F130A8
:1009A400FD00FD0BD32CFC0BD32CFB0BD32C2E2DD9
:1009B400831620088312B100B20101308316A1000E
:1009C4000E30A2002008A3002A220430A000053023
:1009D400FB000F30FC00F130FD00FD0BEF2CFC0B95
:1009E400EF2CFB0BEF2C2E2D01308316A1000B30C6
:1009F400A20020308312EA002030EB002030EC000B
:100A04002030ED00EE016A308316A3008722AE0188
:100A14000730FB001730FC006A30FD00FD0B102D81
:100A2400FC0B102DFB0B102D0000A0012E2D8312AA
:100A34002008003A0319862C2008013A0319A22C35
:100A44002008023A0319BE2C2008033A0319DA2CB1
:0C0A54002008043A0319F62CD42B2F2D97
:100AD000203084000C3083120313F0005C30AC0033
:080AE0000530AD007122080091
:100A6A0050344934433420342034653473342034C8
:100A7A006C34613420346F346E346434613421341C
:020A8A00003436
:100A8C0020342034203420342034203420342034BA
:100A9C0020342034203420342034203420342034AA
:020AAC00003414
:0A0AAE0020342034203420340034BA
:020AB800003408
:040ABA00F4340134DB
:100ABE004C346334643434346234693474343A34C8
:020ACE000034F2
:02400E004A2F37
:00000001FF
