:040000008A15002835
:0C000600000000000000000000000800E6
:0E001200533083120313FD00FD0B0D28080070
:10002000243083120313FC00B530FD00FD0B1628AD
:0A003000FC0B162800000000080079
:10003A00831603133B08F2007208F000F20A7008F4
:10004A008400000803192A2821283B087202F000BC
:0C005A000130F002F101031CF10308006A
:10006600831203132230FC00F801F901FA01FB01A7
:10007600FC03031969280310FB0CFA0CF90CF80CA5
:10008600F30CF20CF10CF00C031C3B28FC030319D7
:100096005B287408F80775080318750FF9077608C2
:1000A6000318760FFA0777080318770FFB073F2820
:1000B6007408F80775080318750FF907760803180A
:0E00C600760FFA0777080318770FFB0708007C
:1000D40083120313FB01FA01F901F801A001730D66
:1000E400F80D7408F8027508031C750FF9027608F8
:1000F400031C760FFA027708031C770FFB0200013A
:10010400031C0130A002F30D0730FC00730DF80D41
:10011400F90DFA0DFB0DA00D7408731CA328F80249
:100124007508031C750FF9027608031C760FFA0292
:100134007708031C770FFB020001031C0130A002A7
:10014400B428F80775080318750FF907760803181B
:10015400760FFA0777080318770FFB0700010318D7
:100164000130A007F30DFC0B8828720DF80DF90D72
:10017400FA0DFB0DA00D7408731CD228F802750843
:10018400031C750FF9027608031C760FFA02770830
:10019400031C770FFB020001031C0130A002E328BB
:1001A400F80775080318750FF90776080318760F12
:1001B400FA0777080318770FFB07000103180130CB
:1001C400A007F20D0730FC00720DF80DF90DFA0DC1
:1001D400FB0DA00D7408721C0129F8027508031C9C
:1001E400750FF9027608031C760FFA027708031CD0
:1001F400770FFB020001031C0130A0021229F8074B
:1002040075080318750FF90776080318760FFA07AF
:1002140077080318770FFB07000103180130A007C4
:10022400F20DFC0BE628710DF80DF90DFA0DFB0D1E
:10023400A00D7408721C3029F8027508031C750F90
:10024400F9027608031C760FFA027708031C770F6D
:10025400FB020001031C0130A0024129F8077508C4
:100264000318750FF90776080318760FFA0777084D
:100274000318770FFB07000103180130A007F10DE5
:100284000730FC00710DF80DF90DFA0DFB0DA00DF2
:100294007408711C5F29F8027508031C750FF902B4
:1002A4007608031C760FFA027708031C770FFB020B
:1002B4000001031C0130A0027029F8077508031817
:1002C400750FF90776080318760FFA0777080318ED
:1002D400770FFB07000103180130A007F10DFC0B99
:1002E4004429700DF80DF90DFA0DFB0DA00D7408DD
:1002F400711C8E29F8027508031C750FF902760823
:10030400031C760FFA027708031C770FFB02000127
:10031400031C0130A0029F29F80775080318750F04
:10032400F90776080318760FFA0777080318770F8A
:10033400FB07000103180130A007F00D0730FC0093
:10034400700DF80DF90DFA0DFB0DA00D7408701C5D
:10035400BD29F8027508031C750FF9027608031C01
:10036400760FFA027708031C770FFB020001031CC7
:100374000130A002CE29F80775080318750FF90794
:1003840076080318760FFA0777080318770FFB0728
:10039400000103180130A007F00DFC0BA22970180E
:1003A400E1297408F80775080318750FF90776082A
:1003B4000318760FFA0777080318770FFB0708006E
:1003C40083160313BB01BD01BE011030BF0004300E
:1003D4003E020318172AF030831287008030F000A1
:1003E4007008073E840083163F09F00070088000FF
:1003F400032003200F3083120705F00070088316D2
:10040400BC0070080319112A3D08BB003C080319FD
:100414000F2ABC0CBC13BB0A082A0430BE00BF0D53
:100424003F100430BD07BE0AE9293B08F00008006C
:10043400103083120313FD00FD0B1E2A0000080078
:1004440083120313F801F9011030FC00710DF80D4B
:10045400F90D7408F8027508031C750FF9020318E6
:100464003A2A7408F80775080318750FF90703107A
:0A047400F00DF10DFC0B282A080022
:10047E0083160313BB1B462A83128611482A831246
:10048E00861583163B1B4E2A83120611502A8312A1
:10049E0006158316BB1A562A83128610582A831203
:1004AE00861483163B1A5E2A83120610602A831264
:1004BE0006145B18642A0616652A06128616032091
:1004CE0086128316BB196E2A83128611702A831226
:1004DE00861583163B19762A83120611782A831203
:1004EE0006158316BB187E2A83128610802A831265
:1004FE00861483163B18862A83120610882A8312C6
:10050E0006145B188C2A06168D2A061286160320F0
:0E051E0086125B1C942A1020952A09200800E2
:10052C00073083120313FC007D30FD00FD0B9C2A69
:06053C00FC0B9C2A0800E4
:10054200E2217008B2000F3083120705F000031990
:0E055200AC2A1A22A42A83163208F0000800F0
:1005600083160313B501053035020318BE2A35087A
:100570003407840020308000B50AB32A35083407D8
:1005800084008001B50335083407B6000A30F40052
:10059000F5013208F0003308F10022227808F0005B
:1005A0007908F1003030F0078316360884007008AF
:1005B00080000A30F400F5013208F0003308F10041
:1005C000222270088316B2007108B3000030710651
:1005D000031DEC2A00307006031DEF2AF12AB50333
:0405E000C32A080022
:0E05E4008312031355088A0054088200080091
:1005F200831603133208BB001D207008B5000130BA
:10060200B7000030B8000030B9000030BA00350839
:10061200003C03184F2B35083207F00070038400AA
:100622000008F1007108B60030307102031C452B3E
:100632003608393C031C452B35083307F00070039C
:10064200F10035083207F000700384000008F00062
:1006520071088400700880003708F0003808F10043
:100662003908F2003A08F3000A30F400F501F60105
:10067200F701332070088316B7007108B8007208BA
:10068200B9007308BA004D2B34088400000AF00048
:100692003408840070088000B503082B0A30F40087
:1006A200F501F601F7013708F0003808F1003908C2
:1006B200F2003A08F3006A2070088316B700710846
:0C06C200B8007208B9007308BA00080004
:1006CE0083120313FB01FA01F9018030F800F10CDB
:1006DE00F00C031C7B2B7408F90775080318750FB3
:1006EE00FA070318FB0A0310F01F832B7408FA078E
:1006FE0075080318750FFB07FB0CFA0CF90CF80CB8
:10070E00031C6E2B7B08F3007A08F2007908F100C7
:06071E007808F00008005D
:10072400831203135B1083163208BB003F225B1451
:020734000800BB
:1007360083160313A701A8012208A9002308AA000B
:1007460080302306F00080307002031DAC2B003091
:1007560022020318BA2B0130A7000030A800220895
:10076600003CA9002308031C013EAA01AA0229088D
:10077600B2002A08B3002408B400B0220630A5004F
:100786000030A6002608003C031DCB2B2508003CA4
:100796000318E62B25082407F20001302502F00095
:1007A6000030031C013E2602F10070082407840075
:1007B6000008F00072088400700880000130A5026D
:1007C600031CA603C52B24088400203080002708BC
:1007D60028040319042CA501A60125082407840072
:1007E6000008203A031DFB2BA50A0319A60AF02BC5
:1007F6000130A502031CA6032508240784002D301A
:040806008000080066
:10080A00172C803083160313A2002A2CC030A200B2
:10081A002A2C9430A2002A2CD430A2002A2C803010
:10082A00A2002A2C831603132208013A0319062C64
:10083A002208023A03190B2C2208033A03190E2C38
:10084A002208043A0319112C142C2303F00022085D
:10085A00F0077008A20083125B1470088316BB00AD
:10086A003F225B1083162408BB003F225B1408005A
:10087A0083160313A401A50180302506F0008030F9
:10088A0023067002031D4B2C220824020318532C42
:0E089A0096228316A40A0319A50A412C080011
:1008A80083160313A501A601A701A801A901AA019E
:1008B800AB01AC01AD010130AE000030AF0000303B
:1008C800B0000030B1002208BB001D207008A40051
:1008D8007008A3007008063C031C242D2208B200EF
:1008E800A630B300A530B400F9227008AE00710834
:1008F800AF007208B0007308B1002508013C031C62
:10090800212D2208840000082D3A0319C92CA301BF
:10091800240823020318BE2C2308A63E8400303086
:100928000002F000F101031CF1032E08F4002F0867
:10093800F500672370088316AC0771080318013E99
:10094800AD070A30F400F501F601F7012E08F000B2
:100958002F08F1003008F2003108F3006A2070080F
:100968008316AE007108AF007208B0007308B100BA
:10097800A30A8C2C2D08803A031DC42C00302C06A9
:10098800031DC82CAC01AD01202D220884002D3098
:1009980080002208840000080319202D2508013A48
:1009A800031D202D0130A3002408230203180A2D5B
:1009B8002308A63E840030300002F000F101031C39
:1009C800F1032E08F4002F08F5006723700883163A
:1009D800AC0771080318013EAD070A30F400F501B1
:1009E800F601F7012E08F0002F08F1003008F20098
:1009F8003108F3006A2070088316AE007108AF0052
:100A08007208B0007308B100A30AD82C2C08003C67
:100A1800F1002D08031C013EF201F2027108AC003E
:100A28007208AD0072087F3A031D1C2DFF30710655
:100A3800031D202DAC01AD01232DAC01AD01262DE8
:0E0A4800AC01AD012C08F0002D08F1000800F3
:100A5600A1227008A200622D3730A300A32D3830E2
:100A6600A300A32D3930A300A32D2530A300A32D69
:100A76003430A300A32D3530A300A32D3630A300B8
:100A8600A32D2A30A300A32D3130A300A32D32308D
:100A9600A300A32D3330A300A32D2D30A300A32D37
:100AA6004330A300A32D3030A300A32D3D30A30077
:100AB600A32D2B30A300A32D3030A300A32D220895
:100AC600013A03192F2D2208023A0319322D220862
:100AD600033A0319352D2208043A0319382D220842
:100AE600053A03193B2D2208063A03193E2D220822
:100AF600073A0319412D2208083A0319442D220802
:100B0600093A0319472D22080A3A03194A2D2208E1
:100B16000B3A03194D2D22080C3A0319502D2208C1
:100B26000D3A0319532D22080E3A0319562D2208A1
:100B36000F3A0319592D2208103A03195C2D5F2D1F
:060B46002308F000080086
:100B4C00803083120313F0007008073E8400FF30DE
:040B5C00800008000D
:100B6000F2228A110A128000840AD40A0319D50AD3
:080B7000F003031DB02D080085
:100B7800CE2D803083160313A200E12DC030A200D1
:100B8800E12D9430A200E12DD430A200E12D803077
:100B9800A200E12D831603132208013A0319BD2D83
:100BA8002208023A0319C22D2208033A0319C52D57
:100BB8002208043A0319C82DCB2D2303F00022087C
:100BC800F0077008A2007008BB003F225B10831674
:100BD800A50125082407840000080319FC2D250811
:100BE800240784000008B20092238316A50AED2D7D
:060BF80083125B140800EB
:100BFE00831603132208393C031C0C2E30302202BC
:0E0C0E00031C0C2E0130F0000D2EF00108002A
:100C1C00831603138612061206108610061186110F
:100C2C0083128612061286110611861006101020E9
:100C3C00102010208614061486160320861210200D
:100C4C00861603208612102086160320861210208A
:100C5C000610861603208612102086160320861294
:100C6C00861086158616032086121020861106140F
:100C7C008616032086120610861603208612102074
:100C8C008616032086120614861603208612102060
:100C9C000610861603208612861506158614061471
:0C0CAC0086160320861210205B1408003E
:100D200021308400333083120313F0005C30D40090
:080D30000630D500B0250800D3
:101000008A1190268A158316031306138613091472
:101010000F309F048312061386138A11A6258A15A2
:101020008A110E268A156230FC006530FD00FD0B2A
:101030001728FC0B17280000000001308316BB00A6
:101040008A113F228A150C308316BB008A113F2279
:101050008A1501308316A2000130A3003830A400A5
:101060008A11BC258A1502308316A2000130A30024
:101070002730A4008A11BC258A1530308316A000C1
:101080008A112B258A157008A1002008A2008A1158
:10109000FF258A157008031D4F283030A00001304D
:1010A000A2000F30A3002108A4008A1105248A158C
:1010B00001308316A2001030A3002008A4008A117A
:1010C00005248A158316A00A83120918862802307F
:1010D0008316A2000130A3004130A4008A11BC2570
:1010E0008A1552088316A200831253088316A300A0
:1010F0005C30A4008A119B238A150230A2000130C3
:10110000A3005C30A4008A11BC258A15061352087E
:101110008316A200831253088316A3008A113D246C
:101120008A158312061752088316A20083125308E9
:101130008316A3008A113D248A152108031940282B
:10114000831286170D30FB00AF30FC00B630FD0077
:10115000FD0BA828FC0BA828FB0BA8280000861371
:101160000D30FB00AF30FC00B630FD00FD0BB628A3
:10117000FC0BB628FB0BB6280000831621083D3A6D
:10118000031DD22883125608003A0319D22856307C
:101190008316A2008A1154248A1570088312D20083
:1011A0007108D30083162108A2008A11FF258A1531
:1011B0007008031DDE2804308312A1007C298316E9
:1011C00021088312D600D70101308316A2000B300C
:1011D000A3002108A4008A1105248A150130A1006A
:1011E0000B30FB002630FC005D30FD00FD0BF628C7
:1011F000FC0BF628FB0BF628000000009229831652
:1012000021088312D700D80101308316A2000C30C8
:10121000A3002108A4008A1105248A150230A10028
:101220000B30FB002630FC005D30FD00FD0B162965
:10123000FC0B1629FB0B16290000000092298316CF
:1012400021088312D800D90101308316A2000D3085
:10125000A3002108A4008A1105248A150330A100E7
:101260000B30FB002630FC005D30FD00FD0B362905
:10127000FC0B3629FB0B362900000000922983164F
:1012800021088312D900DA0101308316A2000E3042
:10129000A3002108A4008A1105248A150430A100A6
:1012A0000B30FB002630FC005D30FD00FD0B5629A5
:1012B000FC0B5629FB0B5629000000009229013037
:1012C0008316A2000B30A3002230A4008A11BC2593
:1012D0008A15D6011030FB003930FC000D30FD00BE
:1012E000FD0B7029FC0B7029FB0B7029000000001E
:1012F000A1019229A101922983122108003A031920
:10130000DF282108013A0319FF282108023A0319AE
:101310001F292108033A03193F292108043A031918
:081320005F297A294028932976
:020CB800003406
:0A0CBA0020342034203420340034AC
:100CC400503449344334203420346534733420346C
:100CD4006C34613420346F346E34643461342134C0
:020CE4000034DA
:100CE6004C346334643434346234693474343A349E
:020CF6000034C8
:100CF800203420342034203420342034203420344C
:100D0800203420342034203420342034203420343B
:020D18000034A5
:040D1A00F434013478
:02400E004A273F
:00000001FF
